:020000040000FA
:100000000C94DE010C940F020C940F020C940F025E
:100010000C940F020C940F020C940F020C940F021C
:100020000C940F020C940F020C940F020C940F020C
:100030000C940F020C940F020C940F020C940F02FC
:100040000C940F020C940F020C940F020C940F02EC
:100050000C940F020C940F020C940F020C942E2F90
:100060000C940F020C94A22F0C94782F0C940F0276
:100070000C940F020C940F020C940F020C940F02BC
:100080000C940F020C940F020C940F020C940F02AC
:100090000C940F020C940F020C940F020C94D82FA6
:1000A0000C940F020C940F020C940F020C940F028C
:1000B0000C940F020C940F020C940F020C940F027C
:1000C0000C940F020C940F020C940F020C940F026C
:1000D0000C940F020C940F020C940F020C940F025C
:1000E0000C940F020C94C7090C940C0C0C94630232
:1000F0000C94B6060C94CD070C9447310C94011E59
:100100000C94A7020C947A0A0C9407040C94B9027C
:100110000C94AB020C9423030C947E020C945208B2
:100120000C9468020C940F0C0C94E3140C944B2B5D
:100130000C94BA280C94BA030C94421A0C94D72845
:100140000C9424030C94481A0C94E5280C94621720
:100150000C94C6280C94C50B0C9489020C9474035F
:100160000C94E1040C9468080C94AF020C943908C8
:100170000C9464060C9499060C94B5150C94E8271D
:100180000C94BE040C947E270C94CC060C944F2C3B
:100190000C9404070C943F2B0C940A0C0C940E0C3A
:1001A0000C948F020C9496280C9486020C94B52B18
:1001B0000C94722B0C94080C0C9473060C94AB07E3
:1001C0000C949D020C94E8040C94CE040C94C10988
:1001D0000C9415050C94BF040C9460030C948202DB
:1001E0000C9493020C94CF2B0C94BE140C94BF2B44
:1001F0000C943E070C949D280C9465080C9465277C
:100200000C94A1020C943C080C94B71D0C9422038E
:100210000C9451030C94310F0C9422080C947A0224
:100220000C9482030C9499020C94B5020000000017
:10023000000000000000FF27100032FF27100032EE
:10024000FF27100032FF27100032000000000000DE
:10025000000000000000000000000000100000008E
:1002600020000000400000008000000001000000AD
:10027000080000000200000004000000000100006F
:100280000002000000040000000800000010000050
:10029000002000000040000000800000000001007D
:1002A000000008000000100000000A0B02090C0DFD
:1002B0000E08070304010000000000000000000019
:1002C000000000000000000000000000000000002E
:1002D00000000000121110000000000000000000EB
:1002E000000000000000000000000000000000010D
:1002F000020408090A0C0D0E0F0000220025002838
:10030000002B002E0031003400020100000501081E
:10031000010B0100002100240027002A002D0030DD
:1003200000330001010000040107010A0105050571
:1003300005070508080808020202020A0A0808045C
:10034000040404010101010101010103030303038A
:10035000030303040707070C0C0C0C0C0C0C0C0219
:1003600002020206060606060606060B0B0B0B0B20
:100370000B0B0B0102102020080810204010204019
:100380008002010201080402010102040810204059
:100390008080402010080402018004020180402077
:1003A00010080402010804020101020408102040A0
:1003B00080010204081020408000473111241FBE34
:1003C000CFEFD1E2DEBFCDBF00E00CBF13E0A0E075
:1003D000B2E0ECE6F9E700E00BBF02C007900D9237
:1003E000A233B107D9F72BE0A2E3B3E001C01D921D
:1003F000A438B207E1F711E0CEEDD1E000E006C08D
:1004000021970109802FFE010E94973CCD3DD10725
:1004100080E00807A9F70E943E350C94B43C0C9488
:10042000000090E0FC01ED58FC4F2491835D9C4F4F
:10043000FC018491882399F090E0880F991FFC01BA
:10044000ED5EFC4FA591B491FC01E750FD4F859105
:1004500094918FB7F894EC91E22BEC938FBF0895B1
:100460008CBD9DBD0895282F30E0F901E855FD4F62
:100470009491F901ED58FC4F4491235D3C4FF901F3
:100480002491222309F435C0992311F1915092311E
:10049000F8F4E92FF0E08827EF5AFD4F8F4F0C94C6
:1004A000973C8202860263027A027E026802890217
:1004B0008F02930299029D02A102A702AB02680279
:1004C000AF02B502B902809180008F7780938000DF
:1004D000E22FF0E0EE0FFF1FE750FD4FA591B49122
:1004E0008FB7F894EC91611148C040954E234C931E
:1004F0008FBF0895809180008F7DE8CF809180002C
:10050000877FE4CF84B58F7784BDE2CF84B58F7DBC
:10051000FBCF8091B0008F778093B000D9CF8091CE
:10052000B0008F7DF9CF809190008F7780939000FD
:10053000CFCF809190008F7DF9CF80919000877F01
:10054000F5CF8091A0008F778093A000C1CF8091DC
:10055000A0008F7DF9CF8091A000877FF5CF80919B
:1005600020018F7780932001B3CF809120018F7D70
:10057000F9CF80912001877FF5CF4E2BB8CF3FB7C1
:10058000F8948091C5049091C604A091C704B091DD
:10059000C80426B5A89B05C02F3F19F00196A11DE0
:1005A000B11D3FBFBA2FA92F982F8827BC01CD01BD
:1005B000620F711D811D911D42E0660F771F881F1C
:1005C000991F4A95D1F708958F929F92AF92BF924B
:1005D000CF92DF92EF92FF924B015C010E94BF022B
:1005E0006B017C010E94BF026C197D098E099F0975
:1005F000683E734081059105A8F321E0821A9108B5
:10060000A108B10888EEC80E83E0D81EE11CF11CD9
:1006100081149104A104B10429F7FF90EF90DF90B9
:10062000CF90BF90AF909F908F9008952FB7F89480
:100630006091C1047091C2048091C3049091C4047C
:100640002FBF089508950895AF92BF92CF92DF9281
:10065000EF92FF920F931F93CF93DF936C017B0177
:100660008B01040F151FEB015E01AE18BF08C01708
:10067000D10759F06991D601ED91FC910190F0817B
:10068000E02DC6011995892B79F7C501DF91CF912E
:100690001F910F91FF90EF90DF90CF90BF90AF90A0
:1006A0000895FC01538D448D252F30E0842F90E078
:1006B000821B930B541710F0CF960895019708955D
:1006C000FC01918D828D981761F0A28DAE0FBF2F26
:1006D000B11D5D968C91928D9F5F9F73928F90E07C
:1006E00008958FEF9FEF0895FC01918D828D9817EB
:1006F00031F0828DE80FF11D858D90E008958FEF28
:100700009FEF0895FC01918D228D892F90E0805CF0
:100710009F4F821B91098F739927089589EF96E067
:100720000E94820321E0892B09F420E0822F0895A2
:10073000FC01A48DA80FB92FB11DA35ABF4F2C9156
:10074000848D90E001968F739927848FA689B7894D
:100750002C93A089B1898C91837080648C93938D44
:10076000848D981306C00288F389E02D80818F7DE7
:1007700080830895EF92FF920F931F93CF93DF939F
:10078000EC0181E0888F9B8D8C8D98131AC0E889CD
:10079000F989808185FF15C09FB7F894EE89FF899C
:1007A0006083E889F98980818370806480839FBF3A
:1007B00081E090E0DF91CF911F910F91FF90EF903A
:1007C0000895F62E0B8D10E00F5F1F4F0F7311274A
:1007D000E02E8C8D8E110CC00FB607FCFACFE88985
:1007E000F989808185FFF5CFCE010E949803F1CF72
:1007F000EB8DEC0FFD2FF11DE35AFF4FF0829FB7F9
:10080000F8940B8FEA89FB8980818062CFCFCF93E8
:10081000DF93EC01888D8823B9F0AA89BB89E88928
:10082000F9898C9185FD03C0808186FD0DC00FB6CE
:1008300007FCF7CF8C9185FFF2CF808185FFEDCF4C
:10084000CE010E949803E9CFDF91CF91089580E017
:1008500090E0892B29F00E948E0381110E940000F4
:1008600080E090E0892B49F080E090E0892B29F02E
:100870000E94000081110E94000080E090E0892B1E
:1008800049F080E090E0892B29F00E94000081115E
:100890000E94000080E090E0892B49F080E090E029
:1008A000892B29F00E94000081110C94000008950A
:1008B00020914704260F3327331F21323105ECF4F2
:1008C00020919004FC0190E080E0243069F082E007
:1008D0000895A09147042191AC01495D5B4FA40F9D
:1008E000B52FB11D2C930196861798F3809147047C
:1008F000680F6093470480E0089581E008951092A6
:10090000900481E080938F0410926A0461E084E196
:100910000E94330261E085E10E943302E9EBF0E0DE
:1009200080818E7F808380818D7F808388E4809327
:10093000B80085E48093BC000895CF93DF9391E0E5
:10094000909326048823B9F0C091B800D091BA00E2
:100950008091BC008A7B8093BC0060E084E10E94AF
:10096000330260E085E10E9433020E947F04D0934D
:10097000BA00C093B800DF91CF9108950895E09137
:10098000BF048091BE04E81730F4F0E0EA5FFB4F4B
:10099000808190E008958FEF9FEF08959091BF04BC
:1009A0008091BE042FEF3FEF981748F4E92FF0E055
:1009B000EA5FFB4F208130E09F5F9093BF04C90145
:1009C00008958091BE049091BF04891B990B0895EE
:1009D000CF92DF92EF92FF920F931F93CF93DF930B
:1009E0007C01CB018A0120919604222389F0EB013E
:1009F0006B01C40ED51ECC15DD0569F06991D701D8
:100A0000ED91FC910190F081E02DC7011995F3CF94
:100A1000642F0E945804C801DF91CF911F910F915C
:100A2000FF90EF90DF90CF900895CF93DF931F92C8
:100A3000CDB7DEB76983209196042223F9F0209187
:100A4000BC04203258F021E030E0FC0133832283E3
:100A500090E080E00F90DF91CF9108958091BD04E8
:100A6000E82FF0E0E956FB4F998190838F5F8093E8
:100A7000BD048093BC0481E090E0ECCF61E0CE0146
:100A800001960E945804F7CFCF92DF92EF92FF9227
:100A90000F931F93CF93DF93FC01C48121E0209338
:100AA0009604C093B7041092BD041092BC048485D0
:100AB000682B86E997E00E941505D091BC04D132DD
:100AC00008F092C00E94BF026B017C0180919004EB
:100AD000811165C082E08093900481E080938F044F
:100AE0008FEF80938E0410928D04D0938C04A7E92D
:100AF000B4E0ECE6F4E080E0D81385C010926B041B
:100B000080916B04CC0FC82BC0936B0480916A0456
:100B1000813009F07CC010926A040E94BF026B0110
:100B20007C0180916B048093BB0080919204909132
:100B30009304A0919404B0919504892B8A2B8B2B5C
:100B400099F00E94BF0200919204109193042091A9
:100B50009404309195046C197D098E099F0906173C
:100B6000170728073907E0F18091BC0083FDD9CF32
:100B700085EC8093BC000E94BF026B017C018091D8
:100B80009004823009F445C080918E048F3F61F15A
:100B900080918E04803241F180918E0425C0809135
:100BA000920490919304A0919404B0919504892BA0
:100BB0008A2B8B2B09F48ACF0E94BF0200919204EA
:100BC0001091930420919404309195046C197D093F
:100BD0008E099F09061717072807390708F076CFEF
:100BE000809191040E949D041092BD041092BC0457
:100BF00010929604DF91CF911F910F91FF90EF908B
:100C0000DF90CF9008959D9191938F5F75CF85EE82
:100C1000B0CF8091920490919304A0919404B091EC
:100C20009504892B8A2B8B2B09F4A9CF0E94BF0234
:100C300000919204109193042091940430919504B2
:100C40006C197D098E099F090617170728073907B0
:100C500008F095CFC5CF8823E9F0A7EDB4E025E0F3
:100C600014969C91149789130DC095E0899FF0010B
:100C70001124E952FB4F848114968C9313821282C3
:100C800014820895992331F0929FD0011124A95222
:100C9000BB4FE6CF08958823A1F09091D604992305
:100CA00081F08F3F29F48091E4059091E505089546
:100CB00095E0899FF0011124E952FB4F82819381D5
:100CC000089590E080E00895DC011C96ED91FC9180
:100CD000309731F086819781982789279827089542
:100CE00090E080E00895CF93DF93FC01EB01AC85A9
:100CF000BD851097A9F012969C91129713968C912E
:100D000013973C9111962C914BEE52E05183408306
:100D10003283238394838583CF01DF91CF9108951C
:100D20008BEE92E09183808312821382148215826B
:100D3000F3CFCF93DF931F92CDB7DEB7DC01ED91F8
:100D4000FC91048CF58DE02D41E050E0BE016F5F19
:100D50007F4F19951816190634F4898190E00F9089
:100D6000DF91CF9108958FEF9FEFF9CFCF93DF936E
:100D70001F92CDB7DEB76983DC01ED91FC91028053
:100D8000F381E02D41E050E0BE016F5F7F4F199588
:100D90000F90DF91CF91089580E00895FB014150BD
:100DA0005109460F571FE417F50778F4208130E00A
:100DB000322F22276181260F311D820F931F821748
:100DC000930708F401963296EECFE417F50751F435
:100DD000208130E0322F2227820F931F8217930742
:100DE00008F40196089544E150E060EB73E090E070
:100DF00080E00E94CE06009721F098278927982747
:100E000008958FEF9FEF0895DC01ED91FC91048C24
:100E1000F58DE02D1994CF93CFB7F89480913603D8
:100E2000811124C0E2E6F3E08491E8EAF3E09491D2
:100E3000E82FF0E0EE0FFF1FED5EFC4FA591B4919F
:100E4000EC91E92321F461E085E30E94330285E31C
:100E50000E9411028CB580618CBD8CB580648CBD04
:100E600084E30E94110283E30E9411028091360301
:100E70008F5F80933603CFBFCF9108950895DF929F
:100E8000EF92FF920F931F93CF93DF93EC0185E0D6
:100E9000E62EF12CFE01869FE00DF11D11249085B8
:100EA00096FF24C0192F177001E085E0D82E8FEF30
:100EB000800F8F3008F001E0602F70E0062FD69E83
:100EC000F001D79EF00D1124EC0FFD1F8085869553
:100ED000869586958770181701F16F5F7F4F603197
:100EE00068F38D81811302C011501D8385E08E9DB2
:100EF000F0018F9DF00D1124EC0FFD1F108681E095
:100F0000818712862296D783C683DF91CF911F9166
:100F10000F91FF90EF90DF900895CE010E943F0760
:100F2000C6CFFC0120812EBD9B012150310941F02B
:100F300051810DB407FEFDCF4EB55EBD4193F5CF97
:100F400061507109860F971F0DB407FEFDCF2EB5B6
:100F5000FC0120830895FC0121E0613499F49C0197
:100F6000255B3F4F61E0AC014E5F5F4F15866687A2
:100F700017865487438735962E173F07B9F7FC012C
:100F8000158208953585631729F02F5F3596203136
:100F9000C9F70895622F0C943F07CF93DF93FC01AC
:100FA00067FD12C0283080F4442319F08581873012
:100FB00059F0EF01A1E0B0E08D85882349F1119649
:100FC0002596A031B105C1F780E018C085E08A9F61
:100FD000E0018B9FD00D1124CE0FDF1F442389F039
:100FE00081E4888785818F5F858325E02A9FC00102
:100FF0002B9F900D1124E80FF91F8085DF91CF9171
:10100000089581E08887F1CF2770687B622B0FC03D
:101010006623E1F26770660F660F660F4423A1F343
:10102000606485818F5F85838770687F682B25E08A
:101030002A9FC0012B9F900D1124E80FF91F608794
:10104000862FDCCFFC0121E0611102C006960895D5
:101050003585631739F02F5F35962031C9F790E059
:1010600080E00895069635E0239F800D911D1124A0
:10107000089590E080E00895CF93DF93EC011A8209
:101080001B821C828D819E81DC01ED91FC9104808C
:10109000F581E02D6F8119951F821B8A80E0DF9119
:1010A000CF9108956C34754061F4483692E0590749
:1010B00051F04F3284E0580731F081E0453D534014
:1010C00019F080E0089581E00895FC018389089576
:1010D000FC01878108958331910509F4C7C08431EB
:1010E000910509F4C5C08230910509F4C3C085316A
:1010F000910509F4BFC08330910509F4BDC0863164
:10110000910509F4B9C08830910509F4B7C081325E
:10111000910509F4B3C08A32910509F4AFC09C016E
:10112000275131092230310508F4A8C08B319105CF
:1011300009F4A4C08733910509F4A0C09C012F7E57
:101140002930310509F49CC09C012B523109223011
:10115000310508F495C08A30910509F493C08D32A9
:10116000910509F48FC08B30910509F48DC08E3242
:10117000910509F489C08E30910509F487C0843245
:10118000910509F483C08F32910509F47FC088323C
:10119000910509F47BC08F30910509F479C085323F
:1011A000910509F475C08033910509F471C0893245
:1011B000910509F46DC08C30910509F46BC0823241
:1011C000910509F467C08133910509F463C08D303E
:1011D000910509F461C08332910509F45DC0823341
:1011E000910509F459C08430910509F457C08E3136
:1011F000910509F453C08530910509F451C08D3132
:10120000910509F44DC08630910509F44BC08F312A
:10121000910509F447C08730910509F445C0803233
:10122000910509F441C08333910509F43FC0803131
:101230009105E1F186329105C9F184339105C1F13F
:1012400081319105A9F18A31910591F1873291059A
:1012500079F18533910571F18231910559F18C3124
:10126000910541F1C69741F18FEF089580E008950F
:1012700081E0089582E0089583E0089584E0089570
:1012800085E0089586E0089587E0089588E0089550
:1012900089E008958AE008958BE008958CE0089530
:1012A0008DE008958EE008958FE0089580E108951F
:1012B00081E1089582E1089583E10895CF92DF925C
:1012C000EF92FF920F931F93CF93DF93EC01CB012B
:1012D0000E946B08833178F594E08902F0011124B3
:1012E000E45AFD4F459155916591749108A119A15A
:1012F0002AA13BA168017901C422D522E622F72266
:1013000081E0CD28CE28CF2809F480E04095509583
:1013100060957095402351236223732348A359A3FA
:101320006AA37BA3DF91CF911F910F91FF90EF9064
:10133000DF90CF90089580E0F5CFCF93DF93EC015D
:10134000CB010E946B088331B8F494E08902F0016C
:101350001124E45AFD4F4591559165917491888D02
:10136000998DAA8DBB8D84239523A623B72321E0D5
:10137000892B8A2B8B2B09F420E0822FDF91CF91D0
:10138000089569E070E088559F4F0C949D09FC0119
:10139000448955892289338966897789463151057F
:1013A000B4F0C90137FF04C088279927821B930B2B
:1013B000841795074CF5CB0177FF04C08827992740
:1013C000861B970B84179507FCF480E008954B3E2D
:1013D0008FEF5807CCF4AA27BB27A41BB50BC90174
:1013E00037FF04C088279927821B930B8A179B0716
:1013F0005CF4CB0177FF04C088279927861B970BE5
:101400008A179B070CF46CC026313105B4F0CA0171
:1014100057FF04C088279927841B950B82179307D1
:1014200044F5CB0177FF04C088279927861B970BCB
:1014300082179307F4F482E008952B3E8FEF38076C
:10144000C4F4AA27BB27A21BB30BCA0157FF04C0D1
:1014500088279927841B950B8A179B0754F4CB0187
:1014600077FF04C088279927861B970B8A179B074D
:10147000CCF16631710594F057FF03C05195419549
:101480005109461757070CF537FF03C031952195D1
:10149000310926173707CCF48CEF08956B3E8FEF98
:1014A00078079CF471956195710957FF03C05195B8
:1014B000419551094617570744F437FF03C031954A
:1014C00021953109261737077CF0808D918D8C3D51
:1014D00025E092075CF08C3D954051F08DEF08952A
:1014E00081E0089583E008958BEF08958EEF0895CD
:1014F0008FEF08952F923F924F925F926F927F925B
:101500008F929F92AF92BF92CF92DF92EF92FF9213
:101510000F931F93CF93DF9300D000D000D01F9282
:101520001F92CDB7DEB71C01DC019A96ED91FC91BC
:10153000E80FF91FC4A0EC2DF0E0FE83ED832F012E
:10154000519441945108052C000C66087708D12C61
:10155000F12CE12CC418D508E608F7089C012855A1
:101560003F4F3A872987F901A0A9B0E0A70196016A
:101570000E94393B2FEF30E040E050E00E941A3BE0
:10158000CA01B901640D751D861D971D0E94FD39A4
:1015900069837A838B839C83A985BA85D1968C9144
:1015A000AFEFB0E0A81BB109A70196010E94443B30
:1015B0002FEF30E040E050E00E941A3BCA01B90131
:1015C000640D751D861D971D0E94FD394B015C0140
:1015D000E985FA85A2A9B0E0A70196010E94393BEE
:1015E0002FEF30E040E050E00E941A3BCA01B90101
:1015F000640D751D861D971D0E94FD396B017C01D0
:1016000020E030E040E85FEBC501B4010E94F6390C
:1016100020E030E0A901882309F4A3C069817A8120
:101620008B819C810E94923C18160CF490C04980DA
:101630005A806B807C8077FA709477F8709420E001
:1016400030E0A901C501B4010E94923C18160CF4C7
:1016500083C0182D9B86A9860B2DB7FAB094B7F8D6
:10166000B094A3019201C501B4010E947E3B2B01FD
:101670003C0120E030E0A901C701B6010E94923C84
:1016800046015701181624F0B7FAB094B7F8B09491
:101690002D813E81B901330F880B990B0E94FD39D2
:1016A0006D837E838F839887A5019401C301B20166
:1016B0000E947E3B9B01AC016D817E818F8198856C
:1016C0000E94EA3B4B015C01AC019B0169817A817C
:1016D0008B819C810E945C3A0E945C3CD1015396B4
:1016E0007C936E935297A5019401612F7B85898528
:1016F000902F0E945C3A0E945C3CF101758B648BD8
:10170000A5019401C701B6010E945C3A90580E945D
:101710005C3CD10157967C936E9356972B960FB6EF
:10172000F894DEBF0FBECDBFDF91CF911F910F9117
:10173000FF90EF90DF90CF90BF90AF909F908F90F1
:101740007F906F905F904F903F902F9008954980C9
:101750005A806B807C8073CF182D9B86A9860B2DB9
:1017600080CF69817A818B819C810E94923C812CFF
:10177000912C540118160CF05ACF49805A806B8076
:101780007C80812C912C540164CFCF92DF92EF9218
:10179000FF92CF93DF93EC017C0188EAE80EF11C05
:1017A0006FE070E0C7010E949D094FEF811106C0F4
:1017B0006EE070E0C7010E949D09482FEAA5FBA5D5
:1017C000EC0FFD1F24A130E0A0E9B1E00E946E3BC8
:1017D0006B017C0187E0F594E794D794C7948A95D0
:1017E000D1F7042E000C550B4C9DC0014D9D900D62
:1017F0005C9D900D112484529A4F998F888F9B8FF6
:101800008A8FDF91CF91FF90EF90DF90CF90089576
:1018100081E0089581E0089580E00895089580E0D2
:101820000895AB014C5D55406D3D25E0720720F4F5
:101830004CED55E0461B570BDC01ED91FC919F01EF
:101840002C5D3540ED3DB5E0FB0720F42CED35E097
:101850002E1B3F0B2E5C3F4F4217530708F49A0193
:101860006D3D754030F024523A4FDC012D933C938E
:1018700008954CED55E0BA01621B730B9B01F5CF47
:101880002C9808952C9A089508950F931F93CF9341
:10189000DF93D82FC62F8A0180E591E00E943002A5
:1018A0000E94400CD260DEBDF8018C2F882339F0F5
:1018B0000DB407FEFDCF91919EBD8150F7CFC00FB3
:1018C000D12FD11D0DB407FEFDCF0E94420CCE01D9
:1018D000DF91CF911F910F9108950F931F93CF9395
:1018E000DF931F921F92CDB7DEB7182F062F80E52A
:1018F00091E00E9430020E94400C126019830A831A
:1019000062E070E0CE0101960E9491070E94420CB5
:101910000F900F90DF91CF911F910F9108958EBD81
:1019200000000DB407FEFDCF8EB508950F931F93F1
:10193000CF93DF938C01EB0160E085E30E943302DB
:101940008AE30E948F0C0C0F1D1F0C171D0729F036
:1019500080E00E948F0C8993F8CF61E085E3DF91EE
:10196000CF911F910F910C9433021F93CF93DF936C
:10197000182FC62FD42F60E085E30E9433028C2FEE
:101980008F71812B0E948F0C8D2F0E948F0C61E034
:1019900085E3DF91CF911F910C943302CF93DF93B6
:1019A000D82FD076909100029D17A1F0C82F43E068
:1019B0006FE180EA0E94B50C4C2F50E085E0559510
:1019C00047958A95E1F743706FE180E80E94B50C76
:1019D000D0930002DF91CF9108951F93CF93DF93AF
:1019E000C82F162FD72F0E94CE0C412F6C2F80E4CA
:1019F0000E94B50C61E06C0F4D2F80E4DF91CF9118
:101A00001F910C94B50CEF92FF920F931F93CF93FD
:101A1000DF938B017A018F3F59F095E0899FE001B8
:101A20001124C952DB4F68817981600F711F0FC08B
:101A30006091E2057091E305600F711FC2EED5E081
:101A4000611588E0780778F37850C2EED5E080E041
:101A50000E94ED0C8A819B81801B910BE816F90690
:101A600008F4C701DF91CF911F910F91FF90EF9084
:101A700008956091E0057091E1056115710529F007
:101A8000615071098CE00C94ED0C6FEF77E0FACFA8
:101A9000CF93DF93C82FD62F0E94CE0C4D2F6C2FE3
:101AA00080E4DF91CF910C94B50CCF93DF93D82FC6
:101AB000C62F60E085E30E9433028C2F8F718D2B3F
:101AC0000E948F0CC7FF03C080E00E948F0C80E053
:101AD0000E948F0CC82F61E085E30E9433028C2F97
:101AE000DF91CF910895CF93C82F0E94CE0C6C2F19
:101AF00080E0CF910C94550DCF93DF93EB01682FCD
:101B000084ED0E94480DBE0186ED0E94ED0CCFE0F1
:101B1000D0E08AEE0E94730D80FF08C06AE070E09A
:101B200080E090E00E94E402219799F7DF91CF9145
:101B30000895CF93C62FBC0182E00E94ED0C60E0B7
:101B400085E30E9433028AE70E948F0C8C2F0E944B
:101B50008F0C61E085E3CF910C943302CF93BC01ED
:101B600080E00E94ED0C60E085E30E9433028AE38E
:101B70000E948F0C80E00E948F0CC82F61E085E3EB
:101B80000E9433028C2FCF910895CF92DF92EF9273
:101B9000FF920F931F93CF93DF936C018B01413022
:101BA000510579F4CB010E94AE0D682FC601DF917B
:101BB000CF911F910F91FF90EF90DF90CF900C94F9
:101BC000990DEA01C60FD71F7E0181E0E81AF108DE
:101BD00080E10E94ED0CB60184E10E94ED0C01153C
:101BE000184048F4E11488E0F80628F07E0181E00E
:101BF000E81A88E0F80AB70182E10E94ED0C40E1A2
:101C00006FE180EA0E94B50C40E26FE180E80E943B
:101C1000B50C6FE180E00E94550D85FF07C061E0C3
:101C200070E080E090E00E94E402F3CFDF91CF917A
:101C30001F910F91FF90EF90DF90CF900895CF927A
:101C4000DF92EF92FF920F931F93CF93DF938C015C
:101C50006091D7047091D8046150784EC12C98E1FE
:101C6000D92EE7EDF4E020E0D0E0C0E045E034819B
:101C7000CB01332341F0439FC001112489529B4F74
:101C8000DC018D919C91E080F1808E199F0902808A
:101C9000F381E02D8E1B9F0B8017910799F4B5E01F
:101CA0002B9FE0011124C952DB4FECEDF4E081E001
:101CB00022813381232B09F453C035968F5F8533FE
:101CC000B9F744C00817190748F48C159D0530F47E
:101CD000249FE0011124C952DB4F6C01311121C056
:101CE000209719F7C7EDD4E085E0D82E8C812881A4
:101CF0003981EA80FB808823D9F0E20EF31E8D9DA6
:101D0000E0011124C952DB4F68817981E616F7069C
:101D100069F34A815B81C7010E94C50DF982E8829F
:101D2000E5CF349FF0011124E952FB4F232F9FCFC1
:101D30008091D7049091D804821B930B8E199F0930
:101D40008150984E8017910708F0AFCF80E0DF9167
:101D5000CF911F910F91FF90EF90DF90CF9008955A
:101D6000288139814A815B81240F351F318320838B
:101D7000138302839C8194838C83E9CF0F931F93F9
:101D8000DB01E42FA80190E0EF3FE1F065E0E69F82
:101D9000F0011124E952FB4F60817181620F731FC2
:101DA00001C0785025E0289FF001299FF00D1124F3
:101DB000E952FB4F808191818A0F9B1F1F910F91E8
:101DC0000C94C50D6091E2057091E305620F731FDD
:101DD0006115E8E07E0728F7E2EEF5E0DDCFCF926F
:101DE000DF92EF92FF920F931F93CF93DF936B01DC
:101DF0008A01790195E0899FE0011124C952DB4FE6
:101E0000688179816C0D7D1D82E00E94ED0C0A8055
:101E1000DB81C02DCC19DD09EC16FD0608F4E701C5
:101E200060E085E30E9433028AE70E948F0C78010C
:101E3000EC0EFD1EE016F10631F0F80181918F01E4
:101E40000E948F0CF7CF61E085E30E943302CE0140
:101E5000DF91CF911F910F91FF90EF90DF90CF9086
:101E60000895CF93DF93EC018A89882379F09A0152
:101E7000AB016E857F850E94EF0E2E853F85280F72
:101E8000391F3F872E87DF91CF91089590E080E042
:101E9000FACFFF920F931F93CF93DF93C0918103EB
:101EA000C1FF66C020917F0330E042EA53E061E069
:101EB00070E0809182030E94EF0ECD7FC09381037A
:101EC000F09082038091D604882309F444C085E011
:101ED000F89EF0011124E952FB4F00811181C2816B
:101EE000D381C00FD11F60E0C8010E94990DB801D5
:101EF00084E00E94ED0CBE016850710986E00E94EA
:101F0000ED0C1AE0249740E86FE180E80E94B50CE0
:101F100040E86FE180EA0E94B50C4AE06CE180EA9B
:101F20000E94B50C48E06FE180E80E94B50C8CE19E
:101F30000E94730D082F8A70D1F348E06FE180EAA8
:101F40000E94B50C01FF2DC0CE010E94AE0D85FF91
:101F500002C01150C1F6C0E08F2D0E942B061092D6
:101F600082038C2FDF91CF911F910F91FF900895E5
:101F7000C0919A03D0919B03CE01089621F4109250
:101F80008203C0E0EECF0E941F0E8093820388235D
:101F9000C1F39E0142EA53E061E070E00E94EF0E5F
:101FA0008FCFC1E0D9CFCF92DF92EF92FF920F9304
:101FB0001F93CF93DF93C82FE090B203F12CFE2C38
:101FC000EE244091B3034451550BE40EF51E48E056
:101FD00050E06CEB73E0C7018C0F911D0E94CE06A0
:101FE00008E0C13129F00091D003069506950C73E5
:101FF00010E0A80164EC73E00E94CE06EC010E151F
:102000001F0508F049C0A701401B510B80918103B7
:1020100062E270E081FF02C063E270E0600F711F56
:10202000809182030E94030D01977C0160E085E3AB
:102030000E9433028AE30E948F0CD12CC12CCE1453
:10204000DF04B8F480E00E948F0C082F10E0102FFE
:10205000002780E00E948F0C800F912F911DC80FE8
:10206000D91FC817D90708F4219682E0C80ED11CE1
:10207000E6CFEC14FD0461F480E00E948F0C90E048
:10208000982F8827C80FD91FC817D90708F4219699
:1020900061E085E30E9433029C2F8D2FCD2B11F43C
:1020A0008FEF9FEFDF91CF911F910F91FF90EF90F6
:1020B000DF90CF900895CF93C82F80E591E00E94E4
:1020C00030020E94400C8C2F0E948F0C80E00E94F6
:1020D0008F0CC82F0E94420C8C2FCF9108958F92A5
:1020E0009F92AF92BF92CF92DF92EF92FF920F93A7
:1020F0001F93CF93DF93882E962E5A010E941603CA
:102100006B017C0128E8C20E23E1D21EE11CF11C08
:1021100010E000E0D0E0C0E098280E9416036C199F
:102120007D098E099F0997FF1EC0692D80EF0E94CF
:102130006D0C0E9416036C197D098E099F0997FF8B
:1021400009C088EC0E945B1087FFF3CF60E888EC41
:102150000E946D0C88EF0E945B10C82FCF70C430B6
:1021600081F0CE30B9F08C2FDF91CF911F910F917C
:10217000FF90EF90DF90CF90BF90AF909F908F90A7
:1021800008950F5F1F4FA114B10439F20A151B0502
:1021900021F6E9CFDF5FD33009F0BFCFE4CF2F9234
:1021A0003F924F925F926F927F928F929F92AF92E7
:1021B000BF92CF92DF92EF92FF920F931F93CF9334
:1021C000DF9300D01F921F92CDB7DEB79D838C8323
:1021D0004B017A016901FC0111818FEF810F80347D
:1021E00008F0AEC00E9416032B013C01F8E84F0E28
:1021F000F3E15F1E611C711CEC81FD81828160E452
:1022000080FD60E888EE0E946D0C312C812F90E0FB
:102210009A838983E114F10409F444C009811A8185
:10222000E016F10608F487010B83A601602F80E118
:102230000E94450C602F88E30E946D0CEC81FD81AB
:102240006081606280EF0E946D0C88EC0E945B10E0
:1022500087FFFBCF60E888EC0E946D0C88EF0E943E
:102260005B108F70382EB12CA12C212C3320E1F182
:102270000E941603641975098609970997FF34C0EF
:10228000F6E03F16D1F12EE0321699F184E03812D3
:1022900009C09FEFA91AB90A8114910471F1A81419
:1022A000B90459F588EF0E945B10EC81FD819281A1
:1022B00085FB90F99283832D0F900F900F900F90D4
:1022C0000F90DF91CF911F910F91FF90EF90DF90D2
:1022D000CF90BF90AF909F908F907F906F905F90C6
:1022E0004F903F902F900895E01AF10AC00ED11E32
:1022F00091CF2394E3E02E16A9F260E088E30E94D8
:102300006D0CF601608180E10E946D0C6B8188E3A9
:102310000E946D0CEC81FD816081606280EF0E9403
:102320006D0C88EC0E945B1087FFFBCF60E888ECA7
:102330000E946D0C88EF0E945B108F70382E96CF34
:102340008AED382EB8CFAF92BF92CF92DF92EF9244
:10235000FF920F931F93CF93DF93EC01B62EA42E21
:1023600069010E9422087C0186EDE114F10409F460
:1023700047C0D701ED91FC91119787ED309709F493
:102380003FC013969C9180E0981731F02081A216EF
:1023900029F033968F5FF8CFF0E0E0E0D601ED93BF
:1023A000FC938BED309761F12281269526952031A3
:1023B00008F02FE081E090E0A0E0B0E004C0880FDA
:1023C000991FAA1FBB1F2A95D2F70197F801918385
:1023D00080836B2D80EE0E946D0C88ED0E945B1057
:1023E000D70114969C91682F697F992329F0CA58C8
:1023F000DF4F68816260682B88ED0E946D0C80E081
:10240000DF91CF911F910F91FF90EF90DF90CF90D0
:10241000BF90AF900895CF92DF92EF92FF920F930B
:102420001F93CF93DF9300D01F92CDB7DEB7790112
:1024300068011A8219821C821B828E010D5F1F4F58
:102440009E012F5F3F4F0E94A311811108C06B8135
:102450007C819601A70189819A810E94CF100F90FB
:102460000F900F900F90DF91CF911F910F91FF90E0
:10247000EF90DF90CF90089588EF0E945B10807CF2
:102480008034B1F018F4882301F10895803819F0F0
:10249000803CC9F0089588ED0E945B1081FD0DC05D
:1024A00069EC88ED0E946D0C82E08093C904089568
:1024B00088ED0E945B1081FDF3CF6BEC88ED0E94EC
:1024C0006D0C83E0F2CF81E0F0CF61ED88ED0E94EA
:1024D0006D0C1092C9040895CF92DF92EF92FF9293
:1024E0000F931F93CF93DF93CDB7DEB7C254D109BB
:1024F0000FB6F894DEBF0FBECDBF8C01FB01828109
:102500009381A481B58123968CAF9DAFAEAFBFAF51
:10251000239721E023962FAF239723964CAD5DADF3
:102520006EAD7FAD23974BAB5CAB6DAB7EAB89AF34
:102530009AAFABAFBCAF8DA79EA7AFA7B8AB28AB88
:102540004DA55EA56FA578A94FA358A769A77AA73F
:102550002EAB4BA95CA96DA97EA949A35AA36BA375
:102560007CA38B8F9C8FAD8FBE8F2AA74FA158A5C0
:1025700069A57AA54D8B5E8B6F8B788F2CA349A1B3
:102580005AA16BA17CA14F87588B698B7A8B898765
:102590009A87AB87BC870E94160366507F4F8F4F88
:1025A0009F4F6093F5067093F6068093F70690931D
:1025B000F8068091D604811117C085E30E941102AC
:1025C00061E085E30E9433020E940B078CB58C7F8B
:1025D0008CBD8DB581608DBD82E70E94730D8F3FEC
:1025E00009F443C08093D6041092E3051092E205EB
:1025F0001092E5051092E405E7EDF4E089E091E042
:10260000DF019C011D9221503040E1F781E098E00C
:102610009093D8048093D7044FEF60E08FEF0E942F
:10262000B50C62E070E080E090E00E94E40262E3BA
:1026300070E080E090E00E94E4021092E1051092C8
:10264000E00580E1E82EF12C6DE180E00E94550D5F
:1026500081110EC031E0E31AF10851F06AE070E038
:1026600080E090E00E94E402EFCF1092D604BCCF4D
:1026700070E060E088E00E94ED0C70E060E08CE0CB
:102680000E94ED0C6FEF77E08AE00E94ED0C61EBA9
:1026900088E30E94480D6FE370E388E20E94ED0C2E
:1026A00069EF77EF80E30E94ED0C6DE070E080EC65
:1026B0000E94ED0C42E362EC80E80E94B50C62E1FE
:1026C0007CE086EC0E94ED0C62E184EC0E94480DF7
:1026D0006CED75E08AEC0E94ED0CD8016C9184EEF3
:1026E0000E94480DF801618185EE0E94480DD801D5
:1026F00012966C9182EE0E94480DF801638183EE80
:102700000E94480DD80114966C9180EE0E94480DED
:10271000F801658181EE0E94480D60E071E080E182
:102720000E947C0D8FE10E94CE0C40EC6BE180E8B2
:102730000E94B50C44E06FE180E80E94B50C66E7AA
:1027400074E084E10E947C0DD8018C918093EF06A7
:1027500011968C9111978093F00612968C91129796
:102760008093F10613968C9113978093F20614963A
:102770008C9114978093F30615968C918093F406B0
:1027800010928E0610928D061092900610928F066F
:10279000109292061092910610929406109293064F
:1027A00010922E0610924C0610926A06109288061D
:1027B00080E094E090931406809313061092EC0549
:1027C0001092EB051092F7051092F6051092020692
:1027D0001092010610920D0610920C0684E0809370
:1027E00095061092EE069BE024E08091EE0688307C
:1027F00008F44CC04D895E898F8921E02A8BCF84F3
:10280000D888E988FA88CB82DC82ED82FE826B85EB
:102810007C85E985FA85F093D304E093D204709324
:10282000D5046093D4045093CF044093CE0490E039
:1028300091609093D1048093D0048FEF9FEF909399
:10284000CB048093CA048FEF90E09093CD048093E3
:10285000CC042E838B819C81AD81BE818093030843
:1028600090930408A0930508B0930608CE5BDF4F51
:102870000FB6F894DEBF0FBECDBFDF91CF911F9191
:102880000F91FF90EF90DF90CF900895899FF00116
:102890001124EA56F94FDF01322F1D923A95E9F7DC
:1028A0008F5F8093EE06A1CF0F931F93CF93DF939B
:1028B000DC0120911306309114062F5F3F4F211544
:1028C0008DE7380710F020E030E1522F432FE7EE7C
:1028D000F5E0EF0180E08430A1F4309314062093FA
:1028E000130630E020E02430310599F484E0809331
:1028F0009506F0E0E0E0CF01DF91CF911F910F91BD
:1029000008950C811D818F5F2B960417150719F709
:10291000D4CFC481D581C90101963B96CD2B09F551
:10292000209395068BE0829FF001839FF00D112488
:10293000E951FA4F5583448377836683109799F45E
:1029400084E0DF011D928A95E9F78BE0829FD00138
:10295000839FB00D1124A951BA4F80E418968C932F
:10296000CACF9C01C0CF8D919C9111979183808398
:1029700012968D919C9193838283E7CF0F931F933F
:10298000CF93DF93EC018B018C859D85892B41F4DE
:1029900070E060E090E080E00E9454149D878C8796
:1029A000EC85FD8580E0309749F01027012710273E
:1029B000158304832E96D287C18781E0DF91CF9162
:1029C0001F910F910895CF93DF93DC011C96ED9139
:1029D000FC913097B1F0EC011582148212861186B9
:1029E0001D861C8689890E942B0688890E942B06D9
:1029F0008A890E942B062E9686E0FE0111928A9506
:102A0000E9F7DF91CF910895FC011382128288EEDD
:102A100093E0A0E0B0E084839583A683B78385E547
:102A200092E091838083158614863E9686E0DF01CE
:102A30001D928A95E9F708952F923F924F925F92E7
:102A40006F927F928F929F92AF92BF92CF92DF92BE
:102A5000EF92FF920F931F93CF93DF937B013A0185
:102A60006901F901A080B180FB013180F901118277
:102A70001082FB01828160E181FD60E288EE0E94AC
:102A80006D0C2A2CA301F701608180E00E946F1079
:102A9000582EF6E08F17B1F3811150C088EC0E94D8
:102AA0005B1082FF5FC080E30E945B10482E8A1596
:102AB0001B0411F008F0422CF60180819181E501A0
:102AC000C81BD90BD7FF02C0D0E0C0E0842C912CEA
:102AD0008C169D060CF4E40180E591E00E94300222
:102AE0000E94400C88E00E948F0CAE0170E060E014
:102AF000C8010E94AD3C209721F0BE01C8010E9490
:102B000091070C0F1D1F0E94420C64E088EC0E948C
:102B10006D0CF60180819181880E991E91828082D0
:102B2000431420F08A149B0408F4ACCF88EF0E9471
:102B30005B10F701928184FB91F99283852DDF91DF
:102B4000CF911F910F91FF90EF90DF90CF90BF90AA
:102B5000AF909F908F907F906F905F904F903F903D
:102B60002F90089580EF582EE9CFCF92DF92EF9209
:102B7000FF920F931F93CF93DF9300D000D0CDB778
:102B8000DEB7FC012389222309F45FC07C01828126
:102B9000811104C08481882309F467C080E490E037
:102BA0009E838D83F701C580D680468567811C8210
:102BB0001B821A8219828E010F5F1F4F9E012D5FAB
:102BC0003F4FC6010E94A31181110DC049815A8156
:102BD0006B817C818701065D1F4F9E012B5F3F4FFC
:102BE000C6010E941C150E941603F701048915896D
:102BF00026893789601B710B820B930B6536710533
:102C00008105910514F126A584A595A5B0E0A22F14
:102C1000808F918FA28FB38F448D558D668D778D68
:102C200084179507A607B70781F0409550956095E2
:102C300070954823592362237B2340A351A362A3A9
:102C400073A3848F958FA68FB78F80E026960FB6DB
:102C5000F894DEBF0FBECDBFDF91CF911F910F91D2
:102C6000FF90EF90DF90CF9008958381882369F3E0
:102C70000E941603F7010489158926893789601B8C
:102C8000710B820B930B613A7F4081059105ECF249
:102C9000870106591F4F27E030E0F7014385678120
:102CA000858196810E940B120E941603F701648BA6
:102CB000758B868B978BC9CF3F924F925F926F92A5
:102CC0007F928F929F92AF92BF92CF92DF92EF92BC
:102CD000FF920F931F93CF93DF93CDB7DEB72E975D
:102CE0000FB6F894DEBF0FBECDBF3C01F42E522EBE
:102CF000402E3C2CCBA0DCA01E861D861C861B868D
:102D00008E01055F1F4F9E01235F3F4F0E94A3115D
:102D1000811155C059824A82EB823C821E821D82FB
:102D2000B886AF82AE014F5F5F4F68E080E20E94DD
:102D3000450C4B855C856F2D80E10E946F108111E1
:102D40003EC0C114D10419F1ED85FE8557FE25C0A2
:102D5000928192609283A114B10409F448C09A86CA
:102D600089864B855C856D857E8586019E01275F02
:102D70003F4FC3010E941C15863069F381111FC0AB
:102D800029853A85A21AB30A2815390520F74B85FB
:102D90005C8557FE10C080EA0FC08281816082830B
:102DA0006B857C859601A401CF010E94CF10811113
:102DB00006C04B855C8580E86F2D0E946F102E96B3
:102DC0000FB6F894DEBF0FBECDBFDF91CF911F913C
:102DD0000F91FF90EF90DF90CF90BF90AF909F90BA
:102DE0008F907F906F905F904F903F9008954B85AC
:102DF0005C85882381F2E3CF8F929F92AF92BF923E
:102E0000CF92EF920F93CF93DF93DC01EFEEF2E0DE
:102E1000E491EC01CD58DF4FEE0FEE718881E82B85
:102E2000E883CD0186599F4F9F938F9380E3882E2F
:102E3000912C90E3A92EB12C22E0C22EEE24E39433
:102E400009E021E218964C91189717966C91179704
:102E500015968D919C910E945C160F900F90DF91BA
:102E6000CF910F91EF90CF90BF90AF909F908F90A8
:102E700008958F929F92AF92BF92CF92EF920F934D
:102E8000CF931F921F92912C812CB12CA12CC12C7D
:102E9000E62E05E020E040E060E00E945C16C82FCE
:102EA0006CE271E080E090E00E94E4020F900F90ED
:102EB0008C2FCF910F91EF90CF90BF90AF909F90BC
:102EC0008F9008952F923F924F925F926F927F92D0
:102ED0008F929F92AF92BF92CF92DF92EF92FF922A
:102EE0000F931F93CF93DF93CDB7DEB7A2970FB6A3
:102EF000F894DEBF0FBECDBFDC0117963C913111B7
:102F00002BC2122F4AA3D62E3C01FC0145805680CD
:102F1000D201ED91FC910190F081E02D60E0C201C1
:102F200019959F8F8E8F892BE1F476EDF72E8F2DDB
:102F3000A2960FB6F894DEBF0FBECDBFDF91CF9142
:102F40001F910F91FF90EF90DF90CF90BF90AF90C7
:102F50009F908F907F906F905F904F903F902F90B9
:102F60000895EE8DFF8D2080318097EDF92E21148C
:102F70003104E9F29301285F3F4F39A328A331833D
:102F800020831483CE0101969F938F9352E1852E67
:102F9000912C62E1A62EB12CCC24C394E12C06E046
:102FA00020E840E060E0D30115968D919C910E944D
:102FB0005C16F82EEE8DFF8D318220820F900F90DF
:102FC000811165C089859A858C34954009F0BEC110
:102FD0002B843C8428E6221622E0320659F03FE298
:102FE000231634E0330631F085ED281683E03806E9
:102FF00009F0ACC1D201ED91FC910280F381E02D8A
:103000002AA140E06D2DC2011995F3018783882321
:1030100009F4A5C198859187682F858196810E94C2
:103020003917F82ED201ED91FC91AE8DBF8D14961B
:103030001C92882359F00480F581E02DD301179666
:103040006C91C2011995F301178271CF0190F08143
:10305000E02DD30117966C91C2011995009709F4E0
:1030600064CFFC011483D30115968D919C91169722
:1030700017961C91E8A1F9A1EF2B09F46AC1612F01
:103080000E942208FC01892B59F446EDF42ED3014D
:10309000ED91FC910480F581E02DC301199547CF96
:1030A000128328A139A13183208311E0138332E0F8
:1030B000D32ED3011B96DC921B9790E41C969C9315
:1030C0001C9784E01D968C931D971E961C931E974B
:1030D0001F969C931F9750968C9350971796FC9031
:1030E00017976F2D15968D919C910E942208FC01D7
:1030F000892B59F2F28228A139A13183208383E000
:10310000838368EC70E080E090E00E94E4021F920C
:103110001F92912C812CB12CA12CC12CEE24E39474
:1031200009E020E0D30118964C91189717966C91FE
:10313000179715968D919C910E945C16F82E0F9012
:103140000F908111A4CFF301E659FF4F2F01F8E64C
:103150002F16F2E03F0649F02FE2221624E0320655
:1031600009F0ACC0F301148303C0D30112961C9381
:1031700082E48B8B8CE08C8B1D8A1E8ACE01439659
:103180009F938F9304E0802E912C84E0A82EB12C85
:1031900093E0C92E24EFE22E09E021E2D301189634
:1031A0004C91189717966C91179715968D919C9145
:1031B0000E945C16ECE2F2E0D201C30186569F4FFA
:1031C0000F900F9024912D933196A817B907D1F73E
:1031D0008FE7F30180AB81AB82AB83ABD3019496D5
:1031E0008C919497811118C095968C919597811127
:1031F00013C096968C91969781110EC097968C91DC
:103200009797811109C098968C919897811104C065
:1032100099968C918823E9F1A3014C5D5F4FF301EE
:103220008381B301665D7F4F882309F44DC085E03B
:103230008B8B80E18A8F81E08B8F82E08C8F82E1A3
:103240008D8FDA01CE0144962D91FC012193CF019F
:103250006A177B07C9F7CE0143969F938F93FBE0D4
:103260008F2E912CABE0AA2EB12CB3E0CB2E15E023
:10327000E12E09E021E2D30118964C911897179698
:103280006C91179715968D919C910E945C160F90EA
:103290000F90D3015196ED91FC9152973097B9F16F
:1032A000199581E0F301838B0E941603D301549694
:1032B0006D937D938D939C93579739CED30113963D
:1032C0001C93F201D0828ACF81E08B8B1C8AFB0198
:1032D000CE0145962291DC012D93CD01E417F5072F
:1032E000C9F7CE0143969F938F9358E0852E912C7A
:1032F00068E0A62EB12C73E0C72EE5EFEE2E09E0B4
:1033000021E2F3014085678185819681BECFF3017B
:1033100083818823B9F08FEFE459FF4F8083319682
:10332000108231961082820127E030E01B964C918A
:103330001B9717966C91179715968D919C910E94EB
:103340000B12AFCFC3010E94FC16ABCF41EDF42EA0
:103350009ECE38EDF32E9BCE29EDF22EE8CD84EDF6
:10336000F82EE5CDFF920F931F93CF93DF93F42EAA
:1033700001E0C62FD0E0CC0FDD1FC80FD91FCA5AFD
:10338000DF4F88819981DC01ED91FC910280F3810E
:10339000E02D2F2D40E060E01995182F803E41F57B
:1033A00061E088EE0E946D0C66E670E080E090E0DF
:1033B0000E94E40288819981DC01ED91FC910190E9
:1033C000F081E02D2F2D40E060E01995182F8D3011
:1033D00031F58FEF800F833088F061E088EE0E9436
:1033E0006D0C66E670E080E090E00E94E40210C0A0
:1033F0008D3061F48FEF800F833050F464E670E01D
:1034000080E090E00E94E4020F5FBBCF882391F23E
:10341000812FDF91CF911F910F91FF900895882305
:10342000B9F3DBCF0F931F93CF938C01C62F0E946C
:1034300044056C2F6460C8010E9444056C2F6B7FAB
:10344000C8010E94440583EC90E00197F1F7CF9109
:103450001F910F9108950F931F93CF93DF938C01CA
:10346000D62FC42F607F642B0E94121A80E1D89F50
:10347000B00111246C2BC801DF91CF911F910F91E6
:103480000C94121A41E00E942B1A81E090E00895FA
:103490002F923F924F925F926F927F928F929F9264
:1034A000AF92BF92CF92DF92EF92FF920F931F9352
:1034B000CF93DF93CDB7DEB769970FB6F894DEBF31
:1034C0000FBECDBF3C0180910001182F107486FD06
:1034D0000CC088EC0E945B1085FF03C00E943C1268
:1034E00010E2612F88EC0E946D0C8091C90481303C
:1034F00041F058F0823009F465C0833069F010E083
:1035000022C083E180932508FACF80912508807F2F
:103510008031A9F381E1F6CF11E080912508807F09
:10352000803189F40E94160368537F4F8F4F9F4F5D
:103530006093320370933303809334039093350385
:1035400080E280932508230142E8440E511C7F8AC3
:103550006E8A630182EAC80ED11C7201D7018D9177
:103560009D917D01009739F0DC01ED91FC91068081
:10357000F781E02D1995EC14FD0481F78091250861
:10358000803409F44FC100F5803209F435C180332D
:1035900009F442C18131B1F5F7011082D2018D9158
:1035A0009D912D01009739F0DC01ED91FC91048093
:1035B000F581E02D1995E414F50481F782E18093FB
:1035C000250820C010E0A9CF813509F43AC1803820
:1035D00009F44AC18035B1F488EC0E945B1086FF83
:1035E00011C081E5809325080E9416036C5E7F4F11
:1035F0008F4F9F4F60933203709333038093340354
:1036000090933503F301E655FF4F8081811105C08A
:1036100032968081882309F4D6C0D301ED91FC91C4
:103620000280F381E02DC3011995D301ED91FC9146
:103630000190F081E02DC3011995830108551F4FBA
:103640006BE070E0C8010E945E098823A9F0930135
:10365000205F3F4FEE89FF8982819381F1E08F27C0
:10366000AE89BF8913969C938E9312971296BF8B47
:10367000AE8B2A173B0771F764E070E0C8010E9427
:103680005E09882349F0F301848D8111F3C181E043
:1036900090E093838283848F65E070E0C8010E948C
:1036A0005E09882349F0F301858D8111E7C181E02E
:1036B00090E095838483858F66E070E0C8010E9466
:1036C0005E09882349F0F301868D8111DBC181E019
:1036D00090E097838683868F67E070E0C8010E9440
:1036E0005E09882349F0F301878D8111CFC181E004
:1036F00090E091878087878F6EEF7FEFC8010E94EF
:103700005E09882349F0F30180A18111C3C181E0E2
:1037100090E09387828780A362E070E0C8010E94F6
:103720005E09882349F0F30181A18111B7C181E0CD
:1037300090E09587848781A36DEF7FEFC8010E9499
:103740005E09882349F0F30182A18111ABC181E0B8
:1037500090E09787868782A363E070E0C8010E94AB
:103760005E09882349F0F30183A181119FC181E0A3
:1037700090E0918B808B83A3C8010E94FC166CE0C3
:1037800070E0C8010E945E09882349F0F30182A518
:1037900093A5181619061CF4019793A782A76DE04C
:1037A00070E0C8010E945E09882369F0D3019A96EF
:1037B0008D919C919B97823091052CF401969B965C
:1037C0009C938E939A9769960FB6F894DEBF0FBEBE
:1037D000CDBFDF91CF911F910F91FF90EF90DF90C0
:1037E000CF90BF90AF909F908F907F906F905F90A1
:1037F0004F903F902F9008950E941603009132033E
:10380000109133032091340330913503601B710B09
:10381000820B930B97FDF6CE61E088EE0E946D0C53
:1038200080E4CDCE88EE0E945B1080FDEBCE88ED6B
:103830000E945B10682F686088ED0E946D0C80E527
:10384000BECE0E941603C0903203D0903303E090A6
:103850003403F09035036C197D098E099F0997FD9B
:10386000D1CE80E8809325081B8A88E08C8B8CE37E
:103870008D8B1301BCE22B0E311CEEEC6E16EFEFBC
:103880007E0609F4A9C0D301D2960D90BC91A02D5B
:10389000B98FA88FCE014396F30193AB82AB16ABE1
:1038A00042979F938F9382E1882E912C92E1A92ECB
:1038B000B12CCC24C394E12C06E020E840E060E089
:1038C000C1010E945C16082FE88DF98DD301D396B3
:1038D000FC93EE93D2970F900F90811148C0A9846A
:1038E000BA84CB84DC84FD81F88F8E807201912CA8
:1038F000D7018D919C910097E1F59394B2E0EB0E86
:10390000F11CE0E19E12F4CFF201808191810097D9
:1039100009F072C00F5FF2E04F0E511C0031A1F7A9
:10392000F30182A993A9892B09F456C016AB20E0B4
:1039300040E060E0C1010E94CD07F82E882309F421
:103940004BC0682FC1010E942208009709F444C0AF
:10395000DC0114961C936F2DC1010E943917082FAA
:10396000882309F485C06F2DC1010E94AB07802F09
:1039700030C0DC01ED91FC910084F185E02D1995BA
:103980008111BBCFF70180819181DC01ED91FC9128
:103990000088F189E02D682D1995882309F4ADCFB1
:1039A000F70180819181DC01ED91FC910484F58522
:1039B000E02DA601B5011995882381F0412F692DCD
:1039C000C1010E94B219813D09F497CF882309F4FF
:1039D0004FC0823D09F416CE80EAF1CDF701808117
:1039E0009181DC01ED91FC910684F785E02D688DD5
:1039F00019958111E3CF81CFDC01ED91FC91008419
:103A0000F185E02D1995811185CFF2018081918199
:103A1000DC01ED91FC910088F189E02D682D19956C
:103A200081110AC0412F602FC1010E94B219982F45
:103A3000977F913D59F66ECFF20180819181DC0133
:103A4000ED91FC910484F585E02DA601B501199551
:103A5000811160CFF20180819181DC01ED91FC91B7
:103A60000684F785E02D688D19958823D9F252CF09
:103A700080E9A5CD13821282148E0ECE1582148297
:103A8000158E1ACE17821682168E26CE11861086B5
:103A9000178E32CE1386128610A23ECE158614865D
:103AA00011A24ACE1786168612A256CE118A108A05
:103AB00013A262CE0E949F3CFB0101900020E9F717
:103AC0003197AF01461B570BDC01ED91FC91028051
:103AD000F381E02D19948F929F92AF92BF92EF9253
:103AE000FF920F931F93CF93DF93CDB7DEB7A197CC
:103AF0000FB6F894DEBF0FBECDBF7C01FA01CB013B
:103B000019A2223008F42AE08E010F5D1F4F822E89
:103B1000912CB12CA12CBF01A50194010E944C3B1A
:103B2000F901CA016A300CF5605DD8016E938D0110
:103B3000232B242B252B79F790E080E0109721F0A0
:103B4000BD01C7010E945C1DA1960FB6F894DEBFAF
:103B50000FBECDBFDF91CF911F910F91FF90EF90DE
:103B6000BF90AF909F908F900895695CDECF8F9249
:103B70009F92AF92BF92CF92DF92EF92FF920F93FC
:103B80001F93CF93DF937C01EB016C0182E0C80EA1
:103B9000D11C4701E5E08E0E911C10E000E0F6011B
:103BA00041916F0150E070E060E02AE0CE010E9498
:103BB0006B1D5C01E881F9810190F081E02D6EE2DE
:103BC000CE0119958A0D9B1D080F191FC814D90421
:103BD00031F7F701458150E070E060E02AE0CE0166
:103BE0000E946B1D800F911FDF91CF911F910F914C
:103BF000FF90EF90DF90CF90BF90AF909F908F900D
:103C00000895CF93DF93249A0E94420C0E940B07E1
:103C1000209A289A809101018F7B8093010168E1AD
:103C200088E80E946D0C60E288E70E946D0C60E0FD
:103C300088E70E946D0CD0E0C0E088E60E945B102F
:103C4000219680FF23C061EC88ED0E946D0C60E638
:103C500080ED0E946D0C64E088EE0E946D0C88EE91
:103C60000E945B1082FFFBCF0E943C1260E288EC56
:103C70000E946D0C61E080E80E946D0C6DEE72E0B8
:103C800089EF96E0DF91CF910C945C1DCF3FDC076C
:103C9000A1F663EF72E089EF96E00E945C1D66E09A
:103CA00073E089EF96E0DF91CF910C945C1D85ED78
:103CB0008093BC008091920490919304A09194040D
:103CC000B09195040796A11DB11D23E0B695A79567
:103CD000979587952A95D1F72091BC0024FD03C0C4
:103CE0001092900408954091920450919304609131
:103CF000940470919504452B462B472B69F300974C
:103D0000A105B10541F02AE22A95F1F700C001971B
:103D1000A109B109E1CF809191040C949D04EF9227
:103D2000FF920F931F93CF93DF93FC011092EE0647
:103D3000C6E9D6E0DE0130E020E02830310569F444
:103D400090E0983009F042C01092990310929803C5
:103D50001092EE0626E936E044C0CD018659964021
:103D60000D911C9111970115110561F112964D915C
:103D70005C9113974115510529F1E080F1800E15F2
:103D80001F0501F50281138140175107D9F42093D3
:103D9000EE06DC01A656B94F86E0FB0101900D92BC
:103DA0008A95E1F78BE0829FF001839FF00D11244B
:103DB000EA56F94F1286DF91CF911F910F91FF9034
:103DC000EF9008952F5F3F4F1B96B7CF9E0148811C
:103DD0005981452BB1F44A815B81452B91F4909335
:103DE000EE0684E0D90101900D928A95E1F7D901A0
:103DF000149686E0FB0101900D928A95E1F7F90196
:103E0000D9CF9F5F2B969DCFEF92FF920F931F9379
:103E1000CF93DF9300D000D0CDB7DEB74091C00381
:103E20005091C1034F3F540731F48091C2039091E8
:103E3000C303019619F18091D2049091D30460914B
:103E4000CA047091CB049B0120953095282B392B07
:103E500042175307A9F52091CC043091CD04209549
:103E60003095E091D404F091D5042E2B3F2BE091B6
:103E7000C203F091C303E217F30711F586E0E9E707
:103E8000F2E0A2EAB3E001900D928A95E1F786E0B4
:103E9000EFEEF6E0A8EAB3E001900D928A95E1F723
:103EA00088E090E09093AF038093AE0380919A03F3
:103EB00090919B030E9690939B0380939A03A5C0C9
:103EC0008427952786239723892B99F42091C20371
:103ED0003091C3038091D4049091D5048227932715
:103EE0006091CC047091CD0486239723892B09F42B
:103EF00099C08091CE049091CF0490939F038093BA
:103F00009E038091D0049091D1049093A10380935B
:103F1000A003E0909E03F0909F030091A0031091F6
:103F2000A103E6E9F6E080E0883009F084C08093E0
:103F3000EE0646E050E06FEF70E082EA93E00E9408
:103F4000AD3C86E0E2ECF3E0DF01282F1D922A95DC
:103F5000E9F7EFEEF6E0A8EAB3E0982F01900D92B2
:103F60009A95E1F7EFEEF6E0A8EBB3E0982F019019
:103F70000D929A95E1F7F092C903E092C80310936D
:103F8000CB030093CA032091D2043091D304309321
:103F9000BF032093BE032091D4043091D504309305
:103FA000C1032093C00320E031E03093B703209396
:103FB000B6033093B1032093B00328E030E0309390
:103FC000B3032093B2038093B40394E09093B503BA
:103FD00028E036E03093AF032093AE0328ED33E0C2
:103FE00030939D0320939C032AE230E030939B039F
:103FF00020939A03BE016F5F7F4FDB011D928A956C
:10400000E9F78EE993E00E948F1E26960FB6F8948A
:10401000DEBF0FBECDBFDF91CF911F910F91FF90FB
:10402000EF90089550939F0340939E033093A10314
:104030002093A0036ECF20813181E216F306E1F4D4
:104040002281338102171307B9F49481911103C0BF
:104050009581992329F08093EE06349686E011CF5E
:1040600096819111F8CF97819111F5CF908591119B
:10407000F2CF91859111EFCF8F5F3B9655CFCF93C4
:10408000DF93EC010E94041F80919A0390919B039F
:104090008A9759F410928203809181038D7F8093D7
:1040A0008103DF91CF910C94490F0E94490F1D822B
:1040B0001C82DF91CF9108959C01AB01709397030F
:1040C000609396031616170654F48091940390910A
:1040D00095038217930719F0B9010C94A43C089535
:1040E000EF92FF920F931F93CF93DF93E0918B0397
:1040F000F0918C03C185D285209709F456C0E090D9
:104100009103E1FE1FC08A8181111CC08091C4030C
:104110009091C503978386838091BC039091BD03E2
:10412000918380838091BE039091BF0393838283A8
:104130008091C8039091C9039827892798270897E9
:1041400009F51A82E3FE31C08D81882371F18C81DB
:1041500080938203809181038260809381038AE24D
:1041600080937F03688179816B52710980919C03F0
:1041700090919D03DF91CF911F910F91FF90EF9050
:104180000C945C200E941F0EF82E8A838823D1F2A3
:104190000E944B068C012AE230E04091800370E0DF
:1041A00060E08F2D0E94BE0ECDCFDF91CF911F9189
:1041B0000F91FF90EF900895AF92BF92CF92DF9250
:1041C000EF92FF920F931F93CF93DF93E0909203B0
:1041D000F0909303F701C48DD58DD0909103209773
:1041E00061F5D6FC03C0F12CE12CD8C0E7E3F3E085
:1041F00090E080E0218121118AC022E1289FE00126
:10420000299FD00D1124C95CDC4FFE0111922A9523
:10421000E9F7C70185519640959587954FEE5EEE7B
:10422000849F9001859F300D949F300D1124288329
:1042300081E08983F701D58FC48FD1FE32C0009110
:104240009A0310919B030115110559F18981882367
:10425000A9F181FD26C05E01F2E0AF0EB11CC12CB8
:10426000F50181915F01811159C0C8010E941F0EA3
:10427000F50131978083882309F450C020919C0375
:1042800030919D03225A33404091800370E060E0FA
:104290000E94BE0EF4E0CF1204C0F701818D806150
:1042A000818F898183FF0AC0877F89838D2D8260FA
:1042B00080939103F701818D8F7E818F809191038F
:1042C00084FD04C087FD02C085FF34C08E01095FF4
:1042D0001F4F6E01FCE0CF0ED11CF80181918F01C0
:1042E0000E942B06F80131971082C016D106A9F75B
:1042F0008A818823E9F0F7018481958198878F83EB
:10430000898184608983F701158E148E6CCF0196A4
:1043100072968430910509F06DCF65CFC394F5E0B6
:10432000CF129ECF809181038E7F80938103B5CF82
:104330001982E9CF80FF48C08F810E942B06FE01C1
:104340003796CE010B96218121938E179F07D9F7BF
:104350001B868F818823D1F19885911145C0EC840B
:10436000FD84E114F10409F43ECF95E0899FF0014A
:104370001124E952FB4FF382E28200919C031091D9
:104380009D03025A134000937F031127C80108962A
:104390008E0D9F1D009779F510928203B7018091D1
:1043A0009C0390919D030E945C20F0929B03E092FD
:1043B0009A03DF91CF911F910F91FF90EF90DF90C3
:1043C000CF90BF90AF9008958C7019F6898181FFCE
:1043D0000ACF8F81811124C01982F701158E148EA6
:1043E00080E180939103FFCE0E944B067C01892BD4
:1043F00009F4F9CEC2CF0E941F0E80938203882356
:1044000069F2B8016F5F7F4F870130E020E04F8194
:104410000E94BE0E80918103826080938103BECF93
:10442000F701818D8061818FDECEAF92BF92CF92F6
:10443000DF92EF92FF921F93CF93DF93843009F4C2
:1044400058C1C0919203D091930328ED33E030938B
:104450009D0320939C033093950320939403833012
:10446000C9F4898D8F70833009F044C08889998997
:10447000892B09F03FC088E0809391030E94DC20E3
:104480008091910385FF15C61092970310929603B1
:10449000198E51C0823009F005C1809190038F5F61
:1044A00080939003811113C080918F038F5F80935D
:1044B0008F0381110CC080918E038F5F80938E03D8
:1044C000811105C080918D038F5F80938D031092C1
:1044D0009B0310929A031092970310929603898D72
:1044E000982F9D7F953059F48A8D8F5F8A8F8837FA
:1044F00009F4198E10929B0310929A0331C28823FB
:10450000C9F328893989232B09F4C7C09A8D2FEF65
:10451000290F2A8F9111EECF9B8D983031F02FEF1C
:10452000280F223050F4953041F4198E80E88093A2
:1045300091030E94DC2084E184C0392F953008F07B
:1045400034E023E001C0220F3A95EAF72A8F9F5FFB
:104550009B8F8F70833009F47DC008F06AC0813072
:1045600009F406C4823031F61092D1038091D10350
:1045700082608093D10382E08093D80394E090938B
:10458000D9038093DA031092DB038CE290E09093DE
:104590009B0380939A0380E68093D0038885809361
:1045A000CC0389858093CD038A858093CE038B8548
:1045B0008093CF038C858093C8038D858093C90336
:1045C0008E858093CA038F858093CB0386E080938A
:1045D000B9038C819D819093C5038093C4038E8120
:1045E0009F819093C7038093C6038091D2049091DA
:1045F000D3049093BD038093BC038091D404909125
:10460000D5049093BF038093BE03888199819093D2
:10461000C1038093C0038A819B819093C3038093DD
:10462000C203898D84FFCBC51092D3031092D203AD
:10463000D5C2863029F0883019F0843009F05ACF7D
:1046400081E18093D10388E290E090939B03809373
:104650009A0321C084E0809391030E94DC20809122
:1046600094039091950390939D0380939C03809174
:10467000960390919703892B09F44CC588899989F1
:10468000009709F447C5889690939B0380939A03FB
:1046900088E18093D10380E57FCF8F70833009F06C
:1046A00029CFE9CE853009F0A9C0E0918B03F091C4
:1046B0008C0384819581892B09F41CCF109293037C
:1046C000109292038CEC93E090939D0380939C0353
:1046D00090939503809394031092970310929603FE
:1046E00010929B0310929A0388E0809391030E949A
:1046F00070208091960390919703009709F4FACE69
:104700009C01245E3F4F30939B0320939A03309388
:10471000B2032093B303E0918B03F0918C032085C7
:104720002093B80321E12093B9030896982789279D
:1047300098279093C9038093C8031092CB031092DB
:10474000CA03848195819093C5038093C4038681B5
:1047500097819093C7038093C6038091D204909170
:10476000D3049093BD038093BC038091D4049091B3
:10477000D5049093BF038093BE0380819181909371
:10478000C1038093C003828193819093C30380937C
:10479000C20388ED93E090939D0380939C0381E195
:1047A0000E94D30F80959095009709F45BC1909378
:1047B000CB038093CA0385E48093B0031092B103C6
:1047C0001092B7031092B6038091830390918403F3
:1047D000019690938403809383039093B403809312
:1047E000B5031092BB031092BA030E94F3068095A2
:1047F00090959093BB038093BA03B2C08091B003AD
:10480000853409F077CEC090B203D12CDC2CCC24B7
:104810008091B303C80ED11C80919A0390919B03A1
:104820008C159D0508F466CED0929B03C0929A0326
:104830008091B6038F7309F05DCE1091B70311110B
:1048400059CEA090D204B090D304A114B10439F48D
:104850008091D4049091D504892B09F441C0209112
:10486000C0033091C1038091B903813149F52F3FD5
:10487000320739F48091C2039091C303019609F481
:104880007DC08091CA049091CB04809590958A292F
:104890009B2982179307A1F48091CC049091CD04B9
:1048A000809590954091D4045091D504842B952BFC
:1048B0004091C2035091C3034817590709F45EC0E1
:1048C000A216B30609F016CE2091C2033091C3039D
:1048D0008091D4049091D5042817390709F00ACEA5
:1048E0000E94F306019609F005CE8091B903863047
:1048F00009F4BBC0813109F441C0813009F0FACD1F
:104900008091C403883009F0F5CD1092C4038091E2
:10491000C6039091C703873F4FEF940768F109964C
:104920009093C7038093C6038091BC039091BD030D
:104930009093C1038093C0038091BE039091BF0305
:104940009093C3038093C203B092BD03A092BC03B3
:104950008091D4049091D5049093BF038093BE03BB
:1049600010929103DF91CF911F91FF90EF90DF9014
:10497000CF90BF90AF9008950896D2CF8CE1C81A1F
:10498000D108D0929B03C0929A038CEC93E0909351
:104990009D0380939C038091CA039091CB03892B44
:1049A000E1F44091C6035091C7036091C403709134
:1049B000C503A091BC03B091BD03C091BE03D091CB
:1049C000BF03E7EEF5E023E136E02E173F0761F481
:1049D00030938C0320938B038DCD81E10E94D30F04
:1049E000019609F087CDDDCF848195810097C1F1D3
:1049F00084179507A9F586819781009719F0861786
:104A0000970771F5808191810097D1F4E280F3805E
:104A1000EF28F1F4F0938C03E0938B03109293034F
:104A20001092920382E0809391038CEC93E0909338
:104A3000950380939403109297031092960357CE98
:104A40008F3F980729F4E280F380EF20E09411F380
:104A50008A179B0729F482819381C817D907D1F25D
:104A60003B96B3CF8FEF9FEFA2CE86E00E94D30F8D
:104A7000019609F03FCD4091C6035091C703609164
:104A8000C4037091C5038091BC039091BD03E09174
:104A9000BE03F091BF03C5E1D6E0298D2223A9F022
:104AA000AC81BD814A175B0781F4AE81BF816A1773
:104AB0007B0759F4A881B9818A179B0731F4AA8131
:104AC000BB81EA17FB0709F45BC16E9626E0CF367F
:104AD000D20719F310F38091D1038F73823061F400
:104AE00050938A0340938903EDE8F6E080E0843038
:104AF00009F091C0809395068091D10382FDFACC94
:104B000084E18093D10388E290E090939B038093AB
:104B10009A0380E58093D0033091CB038091CF033B
:104B20008093CB032091CA038091CE038093CA0364
:104B30002093CE039091C9038091CD038093C90344
:104B40009093CD038091C803809395064091CC0348
:104B50004093C8038093CC033F5F3093CF03311160
:104B60000DC02F5F2093CE03211108C09F5F90934B
:104B7000CD03911103C08F5F8093CC038091C40358
:104B80009091C50390938A03809389032091C60373
:104B90003091C7033093C5032093C4039093C70398
:104BA0008093C6038091BC039091BD039093C10391
:104BB0008093C0038091BE039091BF039093C30381
:104BC0008093C203B092BD03A092BC038091D40431
:104BD0009091D5049093BF038093BE0380E48093AB
:104BE000B80380919A0390919B039093B2038093B2
:104BF000B3031092D7031092D6031092D5031092EC
:104C0000D40386E00E94D30F809590959093D503AE
:104C10008093D403D0CD219131918F5F42175307F8
:104C200009F065CF10929506E5E1F6E090E080E0AE
:104C3000D0E0C0E08430910531F484E080939506A3
:104C4000209781F457CC3E2F2F2FA18DA11163C047
:104C5000809395062EE1289FE001299FD00D112415
:104C6000CB5ED94FD0939303C093920383E08A8F96
:104C7000888F1E8A84E08F8B1B8E5D834C837F839D
:104C80006E838091BC039091BD039983888380914A
:104C9000BE039091BF039B838A8381E0898F8091BB
:104CA0008D038C8780918E038D8780918F038E87F3
:104CB000809190038F8781E090E0998B888B809121
:104CC000CB038B878091CA038A878091C903898728
:104CD0008091C803888781E090E00E942F31809105
:104CE000D003982F907F913508F442C082958F7041
:104CF0008550990B880F991F880F991FE12FF0E0BD
:104D0000E817F9072CF4EE55FC4F36A9311112C003
:104D1000109395062DC0A73031F4209731F0B28D55
:104D2000AA8DAB1710F03C2F2D2F01967E96C32F26
:104D3000D22F80CF313011F41F5FE0CF27A932305E
:104D4000D9F42430C9F41093950680AD91AD89272C
:104D50009827892790938A0380938903813042E0C2
:104D6000940710F080E092E09B8B8A8B9D8B8C8B5C
:104D700080E18093D103FACB222351F2120FBECFF0
:104D8000D0939303C0939203109291039091D10317
:104D900092FF07C0198E80E2809391030E94DC206D
:104DA000A9CB8091D00382958F70880F880F809354
:104DB0009506C81AD108760184E1E81AF108F09244
:104DC0009B03E0929A032F70223021F4892F8F7376
:104DD0008231D1F0E114F10419F4892F8370A1F02C
:104DE00039852A858B855091C80348855413C2C1E3
:104DF0004091C9034313BEC13091CA033213BAC1F3
:104E00002091CB032813B6C194FF49C068897989E2
:104E10006115710509F443C0CE010C960E94FC3067
:104E20003091CC0380918503381339C02091CD0394
:104E300080918603281333C09091CE03809187031D
:104E400098132DC08091CF0340918803841327C00D
:104E50003C872D879E878F87988D8B8D811118C0F9
:104E60008E892A8D921B282F269526952695921B92
:104E7000890F8E8B97FD91952F89322F3695369518
:104E8000231B920F9F8B869586958695890F888F19
:104E900081E080939103888D8A8F198A188A298DE1
:104EA000E22FEF70E150E83008F024CBF0E08827E3
:104EB000E35AF84D8F4F0C94973C65277E27E827DF
:104EC0009D28C628D728BA2896288091910380FF6C
:104ED00011CB83E0898F80E480939103198A188A2B
:104EE000E114F10431F082E480939103C7010E9440
:104EF0002F311092970310929603C0CA80919103AC
:104F000080FF5FC08091D1038F73823109F059C057
:104F10008091D003982F907F913598F182958F7072
:104F20008550990B880F991F880F991FE12FF0E08A
:104F3000E817F9072CF4EE55FC4F36A9311103C0E0
:104F4000109395061EC0313011F41F5FEFCF27A9D3
:104F5000323099F5243089F51093950680AD91ADE6
:104F600089279827892790938A0380938903813022
:104F700012E0910710F080E092E09B8B8A8B9D8B72
:104F80008C8B83E0898F8091C80388878091C903C7
:104F900089878091CA038A878091CB038B8781E0C0
:104FA00090E00E942F3182E480939103198A188A3D
:104FB00010929B0310929A039CCF222309F2120FA6
:104FC000B5CF80E2809391030E94DC20198E94CDAE
:104FD0008091D10380FF20C024FD1EC0888999895B
:104FE000892B09F087CAC60143970E942F3180910F
:104FF0009103982F906190939103EF2819F08261AB
:10500000809391030E94DC2081E090E0998B888B53
:1050100088E0898F1B8E14CB85FF14C08091D60346
:105020009091D703982789279827AC0148525C4F65
:1050300050939D0340939C03E81AF90AF0929B0356
:10504000E0929A0340919A0350919B0390919103AF
:105050004115510541F024FD06C0926090939103E3
:10506000CA010E942F318091D203282F30E0322FC5
:1050700022278091D303820F932F911D90938A034F
:10508000809389032C893D892817390710F0892BD3
:1050900021F430938A0320938903809189039091AE
:1050A0008A039B8B8A8B80919103837009F422CAB7
:1050B00020CF84FF0AC0109297031092960381E0DC
:1050C00090E0998B888B84E0A4CF20919603309157
:1050D000970321153105B9F080FF02C0198A188A9B
:1050E00088899989009789F48A899B89821793070F
:1050F00020F4909397038093960380919603909168
:105100009703998B888B1B8EAACA909397038093E1
:105110009603F9CF8091910381FFECC988E290E07A
:1051200090939B0380939A0380E1B3CA809191038B
:1051300080FFE0C9198E80E12FCEE114F10419F04F
:10514000C7010E942F318091910381709091D1030A
:1051500090FF15C0882381F087E0898F1A8E198A05
:10516000188A81E090E00E942F3180E180939103C2
:105170000E94DC2080E165CA86E0898FF2CF882317
:1051800099F085E0898F198A188AB4C9E114F1046D
:1051900019F0C7010E942F318091D10380FF04C014
:1051A00087E0898F1A8EDDCFEF2821F7A3C9809180
:1051B000910380FF9FC987E0898F1A8E9BC982E087
:1051C0008093D2031092D30309CDCF93DF93EC01E8
:1051D0002C853D852115310529F490E080E0DF9193
:1051E000CF910895EA89EE23C1F381E08B8B85E0AE
:1051F000E89FF0011124E952FB4F8E859F850796A9
:105200009383828330938C0320938B0385E00E94E9
:10521000152280919A0390919B03892BF1F2CE0184
:105220000E960E943F2081E090E0D9CF8F929F920E
:10523000AF92BF92CF92DF92EF92FF92CF93DF9324
:105240008091D604882309F423C1D0918003D11121
:1052500051C089E30E94730D882309F449C060910D
:10526000E0057091E1056B0126E0C20ED11CC1146E
:1052700038E0D30628F06B014AEFC41A47E0D40A9D
:1052800080E00E94ED0C60E08AE30E94550DE82E5C
:1052900060E08AE30E94550DF82EF092E105E0925D
:1052A000E00560E08AE30E94550DB82E60E08AE3D5
:1052B0000E94550DC82F60E08AE30E94550DA82E6C
:1052C00040E46EE180E80E94B50CA7FEECC0E1145A
:1052D00058E0F50608F0E7C0D092E305C092E20579
:1052E0009C2F8B2D04979093E5058093E405DFEFC9
:1052F000D0938003F0908003FF2009F476C081E012
:10530000809381038F2D0E944B06EC0190939B03A9
:1053100080939A03892B09F4F3C042E650E070E0D1
:1053200060E08F2D0E94030D62EA73E00E94960CEC
:10533000C090AE03D090AF0388E0C816D10409F046
:10534000CDC0F09282032E97D0939B03C0939A0313
:105350002091BC033091BD03E091D204F091D304BD
:10536000C9018E279F274091CA045091CB04842302
:105370009523892B49F54091BE035091BF0360915D
:10538000D4047091D504CA0186279727A091CC0434
:10539000B091CD048A239B23892BB1F48091C00363
:1053A0009091C103E817F90709F080C08091C2030A
:1053B0009091C3036817790709F078C068EA73E031
:1053C0008CEB93E00E948F1E81E00E941522809159
:1053D0009A0390919B03892B21F00E94041F0E9445
:1053E000490F8091810380FD8BC00E9416036B01E1
:1053F0007C018091F5069091F606A091F706B09198
:10540000F80646015701881A990AAA0ABB0AC5E19B
:10541000D6E0D0939303C0939203B7FC08C182E017
:105420000E94152280919A0390919B03892B21F071
:105430000E94041F0E94490F6E9636E0CD38D307B4
:1054400041F7B7FC25C04AEFC40ED11CE11CF11C8A
:10545000C092F506D092F606E092F706F092F806B2
:10546000C7EED5E0D0938C03C0938B0385E00E94F8
:10547000152280919A0390919B03892B21F08985B5
:105480009A850E943F202B9656E0C331D50751F7ED
:10549000DF91CF91FF90EF90DF90CF90BF90AF90D2
:1054A0009F908F9008950E94390D22CFE6E9F6E093
:1054B00080E0883019F48093EE0686CF6081718198
:1054C0002617370741F4628173814617570719F48D
:1054D0008093EE0673CF8F5F3B96EBCF28E0C2162A
:1054E00026E0D20669F410929B0310929A03AA97C1
:1054F00060F480919A0390919B03892B09F06FCF00
:105500000E94390D1092800370CF8091B603909164
:10551000B703811531E0930701F18115924049F7F6
:105520002091C8033091C9038091D2049091D30493
:1055300028173907F1F62091CA033091CB038091E7
:10554000D4049091D5042817390799F668EB73E0D5
:105550008EEB93E00E948F1ECCCFE090C803F090BA
:10556000C9038091D2049091D304E816F90609F694
:10557000C091CA03D091CB038091D4049091D504FB
:10558000C817D90709F0B5CF68EB73E08EEB93E04D
:105590000E948F1E80E092E09093B7038093B60341
:1055A00086E0E8EBF3E0A2ECB3E001900D928A957F
:1055B000E1F786E0EFEEF6E0A8EBB3E001900D92A4
:1055C0008A95E1F786E0EFEEF6E0A8EAB3E0019015
:1055D0000D928A95E1F786E0E2ECF3E0A2EAB3E00F
:1055E00001900D928A95E1F78091BE039091BF03DF
:1055F0009093C9038093C8038091C0039091C10325
:105600009093CB038093CA03F092BF03E092BE0352
:10561000D093C103C093C003D092AF03C092AE0336
:105620008AE290E090939B0380939A0362CFEC8D83
:10563000FD8D309709F400CF86859785A089B189C3
:10564000A7019601281B390B4A0B5B0BDA01C90134
:10565000B7FDF2CE83E00E9415220E941603E0916E
:105660009203F0919303048CF58DE02D665F7F4FDC
:105670008F4F9F4F66877787808B918BD3CECF9349
:10568000DF93EC010E94162989890E942B06198A52
:10569000DF91CF9108950F931F93CF93DF931F92C4
:1056A000CDB7DEB78C010E941629F80181898823C5
:1056B00089F041E050E070E060E00E94030D8C0151
:1056C000BE016F5F7F4F0E94960C898190E0013090
:1056D000110511F08FEF9FEF0F90DF91CF911F9188
:1056E0000F910895EF92FF920F931F93CF93DF9343
:1056F0007C01EB018A010E941629F7018189882328
:1057000089F1A80170E060E00E94030D8C01BE01E8
:105710000E94960CF701C1898C2F0E944B068017BE
:10572000910769F48C2F0E942B06F701118AC8019A
:10573000DF91CF911F910F91FF90EF90089585E039
:10574000C89FF0011124E952FB4F80819181800FA5
:10575000911F9183808382819381801B910B93831E
:105760008283E5CF80E090E0E3CFCF93DF93EC013D
:105770000E9416298989DF91CF910C944B06CF9313
:10578000DF93EC010E941629898981110E942B0662
:105790008889898B188ADF91CF910C944B06CF9220
:1057A000DF92EF92FF920F931F93CF93DF9300D07E
:1057B0001F92CDB7DEB78C017B016A010E941629CA
:1057C000D70112968C91129781110EC013968C916D
:1057D0001397811109C014968C911497811104C0FC
:1057E00015968C918823E9F0C114D104D1F0D80129
:1057F0001C96ED91FC91D70112962D913C91139737
:105800003A83298314968D919C919C838B837C2D64
:105810006D2D309779F1778366833183208393836D
:105820008283F80184859585892BB1F18289811164
:1058300033C08EE096E00E941F0ED80152968C93E2
:1058400052972BE230E01F963C932E931E9721E057
:1058500090E0811101C020E0822F0F900F900F90F7
:105860000F90DF91CF911F910F91FF90EF90DF90FC
:10587000CF900895CE0101960E945414F8019587A7
:105880008487009749F09801225F3F4FDC011A9608
:105890003C932E931997C5CF80E090E0DECF6F92B6
:1058A0007F928F929F92AF92BF92CF92DF92EF92B0
:1058B000FF920F931F93CF93DF93CDB7DEB7E5979A
:1058C0000FB6F894DEBF0FBECDBF4C018B013A017D
:1058D0009BEEE92E92E0F92EFA82E9821B821C826D
:1058E0001D821E82CE0109960E940415FAA6E9A621
:1058F0001BA61CA61DA61EA6809103089091040855
:10590000A0910508B09106088F8F98A3A9A3BAA308
:105910008B839C83AD83BE8318861F82F801D801D8
:105920008D91882309F45BC08E32D1F380538A3085
:10593000B8F34B815C816D817E81809115089091D7
:105940001608A0911708B0911808481759076A0758
:105950007B0709F47DC20E9416036F7077277C5F76
:10596000CE0109960E94BE14813009F074C28BEEFC
:1059700092E09E8F8D8F8B819C81AD81BE818F8FB8
:1059800098A3A9A3BAA345E350E0BE01635E7F4F8D
:10599000CE0109960E94CF2B892B09F073C010E02D
:1059A00000E0CE0109960E94E3140130110509F4CC
:1059B0004FC0C801E5960FB6F894DEBF0FBECDBF4D
:1059C000DF91CF911F910F91FF90EF90DF90CF90DB
:1059D000BF90AF909F908F907F906F90089530E030
:1059E00020E090E080E05AE04191442319F18430B6
:1059F00091050CF09ECF4E3281F42F3F310511F00E
:105A00000CF097CFABE2B0E0AC0FBD1FA80FB91FF1
:105A10002C93019630E020E0E7CF529FB001539FD6
:105A2000700D1124242F440F330B20533109260FFE
:105A3000371FDACF2F3F310511F00CF07ACF8430C9
:105A400091050CF076CF8C0F9D1FDC019B962C935B
:105A5000D401ED91FC910488F589E02D8BEE92E064
:105A60009E8F8D8F8BA59CA5ADA5BEA58F8F98A36E
:105A7000A9A3BAA3A301BE01635E7F4FC401199518
:105A80008C0197CF0E94160378876F8342E050E025
:105A9000BE01695F7F4FCE0109960E94310F81E000
:105AA00090E09E8F8D8F42E050E0BE01635E7F4F9D
:105AB000CE0109960E94310F80E091E09E8F8D8F7C
:105AC00042E050E0BE01635E7F4FCE0109960E9426
:105AD000310F1E8E1D8E42E050E0BE01635E7F4F8F
