:020000040000FA
:100000000C9478010C94A9010C94A9010C94A901F9
:100010000C94A9010C94A9010C94A9010C94A901B8
:100020000C94A9010C94E1180C94E1180C94E118BB
:100030000C94A9010C94A9010C94A9010C94A90198
:100040000C94A9010C94A9010C94A9010C94A90188
:100050000C94A9010C94A9010C94A9010C94971873
:100060000C94A9010C9461180C9437180C94A901F4
:100070000C94A9010C94A9010C94A9010C94A90158
:100080000C94A9010C94A9010C94A9010C94A90148
:100090000C94A9010C94A9010C94A9010C945D196C
:1000A0000C94A9010C94A9010C94A9010C94A90128
:1000B0000C94A9010C94A9010C94A9010C94A90118
:1000C0000C94A9010C94A9010C94A9010C94A90108
:1000D0000C94A9010C94A9010C94A9010C94A901F8
:1000E0000C94A9010C94E7030C9464070C94CC08BD
:1000F0000C9409020C948E020C9461030C942E094A
:100100000C94490C0C9465030C942E030C946E0C07
:100110000C943C130C942A030C942B140C9443045D
:100120000C94F1130C945B030C94E7010C94E6031C
:100130000C9426030C9459040C94A7070C94EA140D
:100140000C94D5070C9449030C94BF070C945815D4
:100150000C94DC140C9432030C94D2120C94AB016A
:100160000C9445030C94EA130C94AE1D0C940E14DD
:100170000C94D8010C943B030C9439140C943F0359
:100180000C948A070C9457030C94D8140C940F0306
:100190000C941A140C9441020C94D41A0C94B912B5
:1001A0000C9475140C94CE030C9435030C945303E7
:1001B0000C9414030C94FB010C946B140C945507D1
:1001C0000C9499140C94D7070C944D0300000A0B5F
:1001D00002090C0D0E0807030401000000000000D6
:1001E000000000000000000000000000000000000F
:1001F00000000000000000001211100000000000CC
:1002000000000000000000000000000000000000EE
:100210000000000020002300260029002C002F00F1
:100220003200000100000301060109010000210065
:10023000240027002A002D003000330001010000B7
:10024000040107010A0100002200250028002B00FC
:100250002E003100340002010000050108010B01ED
:1002600005050505070508080808020202020A0A32
:100270000808040404040101010101010101030350
:10028000030303030303040707070C0C0C0C0C0CFB
:100290000C0C0202020206060606060606060B0BF8
:1002A0000B0B0B0B0B0B0102102020080810204039
:1002B000102040800201020108040201010204082A
:1002C00010204080804020100804020180040201B8
:1002D0008040201008040201080402010102040801
:1002E000102040800102040810204080D41AAE1D66
:1002F00011241FBECFEFD1E2DEBFCDBF00E00CBFA7
:1003000012E0A0E0B2E0ECE2FCE300E00BBF02C0D0
:1003100007900D92AC38B107D9F727E0ACE8B2E00E
:1003200001C01D92A93FB207E1F711E0C7E7D1E094
:1003300000E006C021970109802FFE010E94EC1DFC
:10034000C637D10780E00807A9F70E94FA1C0C9471
:10035000041E0C940000AF92BF92CF92DF92EF92F6
:10036000FF920F931F93CF93DF936C017B018B015F
:10037000040F151FEB015E01AE18BF08C017D107AF
:1003800059F06991D601ED91FC910190F081E02D39
:10039000C6011995892B79F7C501DF91CF911F917E
:1003A0000F91FF90EF90DF90CF90BF90AF900895A6
:1003B000FC01538D448D252F30E0842F90E0821B6B
:1003C000930B541710F0CF96089501970895FC01F0
:1003D000918D828D981761F0A28DAE0FBF2FB11D48
:1003E0005D968C91928D9F5F9F73928F90E00895A0
:1003F0008FEF9FEF0895FC01918D828D981731F05A
:10040000828DE80FF11D858D90E008958FEF9FEFAD
:100410000895FC01918D228D892F90E0805C9F4F83
:10042000821B91098F739927089589E296E00E94B3
:10043000090221E0892B09F420E0822F0895FC01B4
:10044000A48DA80FB92FB11DA35ABF4F2C91848D35
:1004500090E001968F739927848FA689B7892C9392
:10046000A089B1898C91837080648C93938D848DE5
:10047000981306C00288F389E02D80818F7D8083E8
:100480000895EF92FF920F931F93CF93DF93EC01A8
:1004900081E0888F9B8D8C8D98131AC0E889F9892B
:1004A000808185FF15C09FB7F894EE89FF8960832E
:1004B000E889F98980818370806480839FBF81E0AF
:1004C00090E0DF91CF911F910F91FF90EF900895F1
:1004D000F62E0B8D10E00F5F1F4F0F731127E02ECC
:1004E0008C8D8E110CC00FB607FCFACFE889F98904
:1004F000808185FFF5CFCE010E941F02F1CFEB8DE9
:10050000EC0FFD2FF11DE35AFF4FF0829FB7F894D7
:100510000B8FEA89FB8980818062CFCFCF93DF93F5
:10052000EC01888D8823B9F0AA89BB89E889F9890B
:100530008C9185FD03C0808186FD0DC00FB607FC40
:10054000F7CF8C9185FFF2CF808185FFEDCFCE0173
:100550000E941F02E9CFDF91CF91089580E090E0E3
:10056000892B29F00E94150281110E94000080E071
:1005700090E0892B49F080E090E0892B29F00E94DF
:10058000000081110E94000080E090E0892B49F07A
:1005900080E090E0892B29F00E94000081110E94E8
:1005A000000080E090E0892B49F080E090E0892B0A
:1005B00029F00E94000081110C9400000895282F5A
:1005C00030E0F901E453FE4F9491F901EA55FD4FF3
:1005D0004491205A3D4FF9012491222309F435C05A
:1005E000992311F191509231F8F4E92FF0E0882726
:1005F000E350FD4F8F4F0C94EC1D2E0332030F037D
:1006000026032A03140335033B033F034503490331
:100610004D035303570314035B0361036503809188
:1006200080008F7780938000E22FF0E0EE0FFF1FB5
:10063000EA5BFD4FA591B4918FB7F894EC916111ED
:1006400048C040954E234C938FBF08958091800001
:100650008F7DE8CF80918000877FE4CF84B58F774E
:1006600084BDE2CF84B58F7DFBCF8091B0008F77C2
:100670008093B000D9CF8091B0008F7DF9CF809169
:1006800090008F7780939000CFCF809190008F7DE6
:10069000F9CF80919000877FF5CF8091A0008F7770
:1006A0008093A000C1CF8091A0008F7DF9CF809171
:1006B000A000877FF5CF809120018F778093200164
:1006C000B3CF809120018F7DF9CF80912001877F6A
:1006D000F5CF4E2BB8CF3FB7F89480912506909177
:1006E0002606A0912706B091280626B5A89B05C02E
:1006F0002F3F19F00196A11DB11D3FBFBA2FA92FA1
:10070000982F8827BC01CD01620F711D811D911D9D
:1007100042E0660F771F881F991F4A95D1F7089509
:100720008F929F92AF92BF92CF92DF92EF92FF9201
:100730004B015C010E946B036B017C010E946B0307
:100740006C197D098E099F09683E734081059105EA
:10075000A8F321E0821A9108A108B10888EEC80E1A
:1007600083E0D81EE11CF11C81149104A104B104A2
:1007700029F7FF90EF90DF90CF90BF90AF909F90C0
:100780008F9008952FB7F8946091210670912206FA
:1007900080912306909124062FBF089520911E0674
:1007A00030911F062817390771F490911D0680912A
:1007B0001C06981741F0E0911D06F0E0E452FA4F54
:1007C000808190E008958FEF9FEF08950895EF9254
:1007D000FF920F931F93CF93DF93DC015C96ED9014
:1007E000FC905D97E114F10479F481E090E01396B8
:1007F0009C938E93129790E080E0DF91CF911F91B0
:100800000F91FF90EF9008955196ED91FC915297C2
:1008100050968C915097982F90950FB75E962C918B
:100820005E97122F127021FD6095F894208111239C
:1008300019F1282B2083E7012197F1F728E0462FB3
:1008400050E0308160FF1AC0382B3083E7012197D8
:10085000F1F7BA0175956795215089F7112381F059
:100860008081892380830FBF5C968D919C91019735
:10087000F1F781E090E0C1CF2923DCCF3923E5CF28
:100880009081892BEFCF20911E0630911F062817EB
:10089000390761F480911C0620911D0690E0805C70
:1008A0009F4F821B91098F739927089590E080E0F4
:1008B000089520911E0630911F0628173907B9F4B4
:1008C00090911D0680911C06981789F0E0911D06F5
:1008D000F0E0E452FA4F808120911D0630E02F5F56
:1008E0003F4F2F73332720931D0690E008958FEF1D
:1008F0009FEF089520919205260F3327331F213251
:100900003105ECF42091B605FC0190E080E0243044
:1009100069F082E00895A09192052191AC014E58B2
:100920005A4FA40FB52FB11D2C930196861798F33B
:1009300080919205680F6093920580E0089581E0B0
:1009400008958FEF9FEF08958FEF9FEF08958091A7
:100950006B0590E09195819591090895CF93DF9370
:10096000CB01EA01642F0E947A04CE01DF91CF917E
:100970000895CF93DF931F92CDB7DEB7698361E00F
:10098000CE0101960E947A0481E090E00F90DF9101
:10099000CF9108958823E9F0A2E6B4E025E014960B
:1009A0009C91149789130DC095E0899FF001112443
:1009B000EE59FB4F848114968C9313821282148219
:1009C0000895992331F0929FD0011124AE59BB4F65
:1009D000E6CF089590E080E008958EBD00000DB44C
:1009E00007FEFDCF8EB508950F931F93CF93DF932E
:1009F0008C01EB0160E085E30E94DF028AE30E9444
:100A0000ED040C0F1D1F0C171D0729F080E00E943C
:100A1000ED048993F8CF61E085E3DF91CF911F91D9
:100A20000F910C94DF021F93CF93DF93D82F162FD3
:100A3000C42F60E085E30E94DF02812F8D2B0E948E
:100A4000ED048C2F0E94ED0461E085E3DF91CF91EE
:100A50001F910C94DF02CF93DF93D82FD076909123
:100A600000029D1799F0C82F43E06FE180EA0E94D1
:100A700013054C2F50E085E0559547958A95E1F791
:100A80006FE180E80E941305D0930002DF91CF91BF
:100A900008951F93CF93DF93C82F162FD72F0E944F
:100AA0002B05412F6C2F80E40E94130561E06C0F31
:100AB0004D2F80E4DF91CF911F910C941305EF929D
:100AC000FF920F931F93CF93DF938B017A018F3F98
:100AD00059F095E0899FE0011124CE59DB4F6881E0
:100AE0007981600F711F0FC060915D0470915E0489
:100AF000600F711FCDE5D4E0611588E0780778F3C9
:100B00007850CDE5D4E080E00E9449058A819B8140
:100B1000801B910BE816F90608F4C701DF91CF910D
:100B20001F910F91FF90EF90089560915B04709179
:100B30005C046115710529F0615071098CE00C9419
:100B400049056FEF77E0FACFCF93DF93D82FC62F09
:100B500060E085E30E94DF028C2F8F718D2B0E9455
:100B6000ED0480E00E94ED04C82F61E085E30E945F
:100B7000DF028C2FDF91CF910895CF93C62FBC0158
:100B800082E00E94490560E085E30E94DF028AE777
:100B90000E94ED048C2F0E94ED0461E085E3CF916B
:100BA0000C94DF02CF93BC0180E00E94490560E015
:100BB00085E30E94DF028AE30E94ED0480E00E9448
:100BC000ED04C82F61E085E30E94DF028C2FCF91F6
:100BD0000895CF92DF92EF92FF920F931F93CF93DE
:100BE000DF936C018B014130510579F4CB010E94F8
:100BF000D205682FC601DF91CF911F910F91FF9011
:100C0000EF90DF90CF900C94BD05EA01C60FD71F7F
:100C10007E0181E0E81AF10880E10E944905B601F1
:100C200084E10E9449050115184048F4E11488E068
:100C3000F80628F07E0181E0E81A88E0F80AB7019A
:100C400082E10E94490540E16FE180EA0E941305BC
:100C500040E26FE180E80E9413056FE180E00E94AE
:100C6000A40585FF07C061E070E080E090E00E948D
:100C70009003F3CFDF91CF911F910F91FF90EF90F1
:100C8000DF90CF900895CF92DF92EF92FF920F9373
:100C90001F93CF93DF938C01609162047091630482
:100CA0006150784EC12C98E1D92EE2E6F4E020E0C4
:100CB000D0E0C0E045E03481CB01332341F0439FD5
:100CC000C00111248E599B4FDC018D919C91E080D5
:100CD000F1808E199F090280F381E02D8E1B9F0BFE
:100CE0008017910799F4B5E02B9FE0011124CE59AC
:100CF000DB4FE7E6F4E081E022813381232B09F426
:100D000053C035968F5F8533B9F744C0081719076C
:100D100048F48C159D0530F4249FE0011124CE5930
:100D2000DB4F6C01311121C0209719F7C2E6D4E0E6
:100D300085E0D82E8C8128813981EA80FB80882348
:100D4000D9F0E20EF31E8D9DE0011124CE59DB4F48
:100D500068817981E616F70669F34A815B81C701EC
:100D60000E94E905F982E882E5CF349FF001112461
:100D7000EE59FB4F232F9FCF809162049091630423
:100D8000821B930B8E199F098150984E80179107F3
:100D900008F0AFCF80E0DF91CF911F910F91FF90CE
:100DA000EF90DF90CF900895288139814A815B814F
:100DB000240F351F31832083138302839C81948306
:100DC0008C83E9CF0F931F93DB01E42FA80190E000
:100DD000EF3FE1F065E0E69FF0011124EE59FB4F93
:100DE00060817181620F731F01C0785025E0289FD8
:100DF000F001299FF00D1124EE59FB4F8081918164
:100E00008A0F9B1F1F910F910C94E90560915D045F
:100E100070915E04620F731F6115E8E07E0728F78A
:100E2000EDE5F4E0DDCFCF92DF92EF92FF920F93EA
:100E30001F93CF93DF936B018A01790195E0899F1E
:100E4000E0011124CE59DB4F688179816C0D7D1D45
:100E500082E00E9449050A80DB81C02DCC19DD09A2
:100E6000EC16FD0608F4E70160E085E30E94DF026E
:100E70008AE70E94ED047801EC0EFD1EE016F106F3
:100E800031F0F80181918F010E94ED04F7CF61E00C
:100E900085E30E94DF02CE01DF91CF911F910F9178
:100EA000FF90EF90DF90CF900895DC011C96ED91BC
:100EB000FC91309731F08681978198278927982770
:100EC000089590E080E00895CF93DF93FC01EB015B
:100ED000AC85BD851097A9F012969C911297139638
:100EE0008C9113973C9111962C9141E852E05183DB
:100EF00040833283238394838583CF01DF91CF9115
:100F0000089581E892E09183808312821382148293
:100F10001582F3CFCF93DF931F92CDB7DEB7DC01FD
:100F2000ED91FC91048CF58DE02D41E050E0BE0187
:100F30006F5F7F4F19951816190634F4898190E078
:100F40000F90DF91CF9108958FEF9FEFF9CFCF935F
:100F5000DF93EC018A89882379F09A01AB016E85D1
:100F60007F850E9413072E853F85280F391F3F87F5
:100F70002E87DF91CF91089590E080E0FACFCF9354
:100F8000DF931F92CDB7DEB76983DC01ED91FC9151
:100F90000280F381E02D41E050E0BE016F5F7F4FA2
:100FA00019950F90DF91CF91089580E0089590E01A
:100FB00080E00895FB0141505109460F571FE41787
:100FC000F50778F4208130E0322F22276181260F47
:100FD000311D820F931F8217930708F401963296F2
:100FE000EECFE417F50751F4208130E0322F2227AD
:100FF000820F931F8217930708F401960895CF92EA
:10100000DF92EF92FF920F931F93CF93DF93C82F3E
:10101000E0900704F12CFE2CEE244091080444518A
:10102000550BE40EF51E48E050E061E174E0C701A5
:101030008C0F911D0E94DA0708E0C13129F0009160
:101040002504069506950C7310E0A80169E174E08B
:101050000E94DA07EC010E151F0508F049C0A70130
:10106000401B510B8091D60262E270E081FF02C00A
:1010700063E270E0600F711F8091D7020E945F05EC
:1010800001977C0160E085E30E94DF028AE30E9411
:10109000ED04D12CC12CCE14DF04B8F480E00E9402
:1010A000ED04082F10E0102F002780E00E94ED04CF
:1010B000800F912F911DC80FD91FC817D90708F4A9
:1010C000219682E0C80ED11CE6CFEC14FD0461F439
:1010D00080E00E94ED0490E0982F8827C80FD91F68
:1010E000C817D90708F4219661E085E30E94DF0262
:1010F0009C2F8D2FCD2B11F48FEF9FEFDF91CF9190
:101100001F910F91FF90EF90DF90CF90089544E1F1
:1011100050E065E074E090E080E00E94DA0700971C
:1011200021F098278927982708958FEF9FEF08953A
:10113000CF93DF93C091D602C1FF13C02091D40298
:1011400030E047EF53E061E070E08091D7020E9409
:101150001307CD7FC093D6028091D7020E94CA04A4
:1011600007C0C0919603D0919703CE01089631F441
:101170001092D70280E0DF91CF9108950E9443063C
:101180008093D7028823B1F39E0147EF53E061E0DB
:1011900070E00E941307E0CFDC01ED91FC91048C1C
:1011A000F58DE02D1994FB0101900020E9F73197AE
:1011B000AF01461B570BDC01ED91FC910280F381DE
:1011C000E02D19948F929F92AF92BF92EF92FF926F
:1011D0000F931F93CF93DF93CDB7DEB7A1970FB6D1
:1011E000F894DEBF0FBECDBF7C01FA01CB0119A27E
:1011F000223008F42AE08E010F5D1F4F822E912CC1
:10120000B12CA12CBF01A50194010E94CA1DF901B6
:10121000CA016A300CF5605DD8016E938D01232BF5
:10122000242B252B79F790E080E0109721F0BD0169
:10123000C7010E94D308A1960FB6F894DEBF0FBE77
:10124000CDBFDF91CF911F910F91FF90EF90BF9095
:10125000AF909F908F900895695CDECF8F929F92A0
:10126000AF92BF92CF92DF92EF92FF920F931F93B4
:10127000CF93DF937C01EB016C0182E0C80ED11C9F
:101280004701E5E08E0E911C10E000E0F60141916F
:101290006F0150E070E060E02AE0CE010E94E208B9
:1012A0005C01E881F9810190F081E02D6EE2CE01D0
:1012B00019958A0D9B1D080F191FC814D90431F701
:1012C000F701458150E070E060E02AE0CE010E9425
:1012D000E208800F911FDF91CF911F910F91FF9036
:1012E000EF90DF90CF90BF90AF909F908F90089538
:1012F0001F93CF93DF9385ED8093BC0080916E05A3
:1013000090916F05A0917005B09171050796A11D90
:10131000B11D23E0B695A795979587952A95D1F7A6
:101320002091BC0024FD03C01092B60552C040912C
:101330006E0550916F056091700570917105452B98
:10134000462B472B69F30097A105B10541F02AE22E
:101350002A95F1F700C00197A109B109E1CF809169
:101360006D05C1E0C0936C05882399F1D091B80058
:101370001091BA008091BC008A7B8093BC0060E031
:1013800084E10E94DF0260E085E10E94DF021092AA
:10139000B605C093B8051092B70561E084E10E94DC
:1013A000DF0261E085E10E94DF028091B9008E7F5B
:1013B0008093B9008091B9008D7F8093B90088E453
:1013C0008093B80085E48093BC001093BA00D0935A
:1013D000B800DF91CF911F910895EF92FF920F9384
:1013E0001F93CF93DF93FC011092F203CAE9D3E07D
:1013F000DE0130E020E02830310569F490E09830DB
:1014000009F042C010929503109294031092F203D7
:101410002AE933E044C0CD018A5993400D911C91D3
:1014200011970115110561F112964D915C91139779
:101430004115510529F1E080F1800E151F0501F5D8
:101440000281138140175107D9F42093F203DC0184
:10145000A256BC4F86E0FB0101900D928A95E1F700
:101460008BE0829FF001839FF00D1124E656FC4F24
:101470001286DF91CF911F910F91FF90EF90089509
:101480002F5F3F4F1B96B7CF9E0148815981452B57
:10149000B1F44A815B81452B91F49093F20384E08F
:1014A000D90101900D928A95E1F7D901149686E051
:1014B000FB0101900D928A95E1F7F901D9CF9F5F69
:1014C0002B969DCF9C01AB01709393036093920385
:1014D0001616170654F48091900390919103821789
:1014E000930719F0B9010C94F41D0895EF92FF923F
:1014F0000F931F93CF93DF93E0918703F0918803BD
:10150000C185D285209709F456C0E0908D03E1FE95
:101510001FC08A8181111CC08091190490911A0406
:101520009783868380911104909112049183808324
:1015300080911304909114049383828380911D04FD
:1015400090911E04982789279827089709F51A82F1
:10155000E3FE31C08D81882371F18C818093D702A5
:101560008091D60282608093D6028AE28093D40270
:10157000688179816B5271098091980390919903E8
:10158000DF91CF911F910F91FF90EF900C94620A21
:101590000E944306F82E8A838823D1F20E94EA042F
:1015A0008C012AE230E04091D50270E060E08F2D9E
:1015B0000E94E206CDCFDF91CF911F910F91FF9056
:1015C000EF900895EF92FF920F931F93CF93DF93C5
:1015D00000D000D0CDB7DEB7E0901504F09016042F
:1015E00000911704109118048FEFE816F80639F4EB
:1015F00086E0E3E5F2E00F3F100709F495C0F092B2
:10160000F403E092F3031093F6030093F503EAE981
:10161000F3E080E0883009F073C08093F20346E085
:1016200050E06FEF70E087EF93E00E94FD1D86E0D1
:10163000E7E1F4E0DF01982F1D929A95E9F7EDE4D8
:10164000F2E0ADEFB3E0982F01900D929A95E1F79B
:10165000EDE4F2E0ADE0B4E0982F01900D929A95A0
:10166000E1F7F0921E04E0921D0410932004009311
:101670001F04109214041092130410921604109276
:10168000150420E031E030930C0420930B043093D8
:1016900006042093050428E030E0309308042093EA
:1016A00007048093090494E090930A0428E036E04C
:1016B00030930404209303042DE234E03093990323
:1016C000209398032AE230E0309397032093960307
:1016D000BE016F5F7F4FDB011D928A95E9F783EFB3
:1016E00093E00E94ED0926960FB6F894DEBF0FBE78
:1016F000CDBFDF91CF911F910F91FF90EF90089593
:1017000020813181E216F306D1F522813381201741
:101710003107A9F59481911103C09581992319F19D
:101720008093F203349686E0A7EFB3E001900D9228
:101730008A95E1F786E0EDE4F2E0ADEFB3E00190E9
:101740000D928A95E1F788E090E0909304048093ED
:10175000030480919603909197030E9690939703BC
:1017600080939603C0CF96819111DACF9781911122
:10177000D7CF90859111D4CF91859111D1CF8F5F23
:101780003B9648CFCF93DF93EC010E94E20A809111
:101790009603909197038A9759F41092D7028091FB
:1017A000D6028D7F8093D602DF91CF910C9498085A
:1017B0000E9498081D821C82DF91CF9108950F939B
:1017C0001F93CF93DF93DC012091D8023091D9028F
:1017D0002F5F3F4F21158DE7380710F020E030E1F3
:1017E000522F432FEBE5F3E0EF0180E08430A1F4CA
:1017F0003093D9022093D80230E020E02430310524
:1018000099F484E08093E002F0E0E0E0CF01DF9122
:10181000CF911F910F9108950C811D818F5F2B96A1
:101820000417150719F7D4CFC481D581C9010196D2
:101830003B96CD2B09F52093E0028BE0829FF001CF
:10184000839FF00D1124E55AFC4F55834483778321
:101850006683109799F484E0DF011D928A95E9F779
:101860008BE0829FD001839FB00D1124A55ABC4FFD
:1018700080E418968C93CACF9C01C0CF8D919C9127
:1018800011979183808312968D919C91938382838B
:10189000E7CF0F931F93CF93DF93EC018B018C85E0
:1018A0009D85892B41F470E060E090E080E00E942B
:1018B000DF0B9D878C87EC85FD8580E0309749F0B4
:1018C000102701271027158304832E96D287C187FE
:1018D00081E0DF91CF911F910F910895CF93DF9316
:1018E000DC011C96ED91FC913097B1F0EC01158272
:1018F0001482128611861D861C8689890E94CA045C
:1019000088890E94CA048A890E94CA042E9686E0A9
:10191000FE0111928A95E9F7DF91CF910895FC01BC
:101920001382128288EE93E0A0E0B0E08483958376
:10193000A683B78389E292E091838083158614861B
:101940003E9686E0DF011D928A95E9F70895AF92F1
:10195000BF92CF92DF92EF92FF920F931F93CF939C
:10196000DF93E0908E03F0908F03F701C48DD58D47
:10197000D0908D03209761F5D6FC03C0F12CE12CAB
:10198000D8C0ECE8F2E090E080E0218121118AC02B
:1019900022E1289FE001299FD00D1124C457DD4F7B
:1019A000FE0111922A95E9F7C701835E9240959551
:1019B00087954FEE5EEE849F9001859F300D949F3A
:1019C000300D1124288381E08983F701D58FC48FDE
:1019D000D1FE32C0009196031091970301151105B5
:1019E00059F189818823A9F181FD26C05E01F2E0C9
:1019F000AF0EB11CC12CF50181915F01811159C05D
:101A0000C8010E944306F50131978083882309F4B9
:101A100050C02091980330919903275F3340409143
:101A2000D50270E060E00E94E206F4E0CF1204C04C
:101A3000F701818D8061818F898183FF0AC0877F53
:101A400089838D2D826080938D03F701818D8F7E38
:101A5000818F80918D0384FD04C087FD02C085FFC6
:101A600034C08E01095F1F4F6E01FCE0CF0ED11C08
:101A7000F80181918F010E94CA04F8013197108208
:101A8000C016D106A9F78A818823E9F0F70184817D
:101A9000958198878F83898184608983F701158E6A
:101AA000148E6CCF019672968430910509F06DCF3B
:101AB00065CFC394F5E0CF129ECF8091D6028E7F82
:101AC0008093D602B5CF1982E9CF80FF48C08F81BD
:101AD0000E94CA04FE013796CE010B962181219304
:101AE0008E179F07D9F71B868F818823D1F19885A0
:101AF000911145C0EC84FD84E114F10409F43ECF5A
:101B000095E0899FF0011124EE59FB4FF382E282A8
:101B10000091980310919903075F13400093D4023A
:101B20001127C80108968E0D9F1D009779F5109218
:101B3000D702B70180919803909199030E94620A9D
:101B4000F0929703E0929603DF91CF911F910F914E
:101B5000FF90EF90DF90CF90BF90AF9008958C7082
:101B600019F6898181FF0ACF8F81811124C01982E2
:101B7000F701158E148E80E180938D03FFCE0E94B5
:101B8000EA047C01892B09F4F9CEC2CF0E944306F6
:101B90008093D702882369F2B8016F5F7F4F870176
:101BA00030E020E04F810E94E2068091D602826000
:101BB0008093D602BECFF701818D8061818FDECE0A
:101BC000CF92DF92EF92FF921F93CF93DF938430F7
:101BD00009F450C1C0918E03D0918F032DE234E0FF
:101BE00030939903209398033093910320939003AB
:101BF0008330C9F4898D8F70833009F044C088899F
:101C00009989892B09F03FC088E080938D030E9459
:101C1000A70C80918D0385FFA0C5109293031092AD
:101C20009203198E51C0823009F0FDC080918C035F
:101C30008F5F80938C03811113C080918B038F5F22
:101C400080938B0381110CC080918A038F5F8093F6
:101C50008A03811105C0809189038F5F8093890376
:101C6000109297031092960310929303109292038E
:101C7000898D982F9D7F953059F48A8D8F5F8A8F3B
:101C8000883709F4198E1092970310929603CDC1EC
:101C90008823C9F328893989232B09F4BFC09A8D79
:101CA0002FEF290F2A8F9111EECF9B8D983031F0B5
:101CB0002FEF280F223050F4953041F4198E80E830
:101CC00080938D030E94A70C84E17CC0392F95304E
:101CD00008F034E023E001C0220F3A95EAF72A8F9A
:101CE0009F5F9B8F8F70833009F475C008F062C0CE
:101CF000813009F491C3823031F61092260480912C
:101D0000260482608093260482E080932D0494E070
:101D100090932E0480932F04109230048CE290E074
:101D2000909397038093960380E68093250488859B
:101D3000809321048985809322048A8580932304DB
:101D40008B85809324048C8580931D048D858093DE
:101D50001E048E8580931F048F858093200486E067
:101D600080930E048C819D8190931A0480931904B2
:101D70008E819F8190931C0480931B041092120407
:101D80001092110410921404109213048881998106
:101D900090931604809315048A819B819093180474
:101DA00080931704898D84FF5EC5109228041092D9
:101DB000270471C2863029F0883019F0843009F088
:101DC00062CF81E18093260488E290E090939703AC
:101DD0008093960321C084E080938D030E94A70C1A
:101DE000809190039091910390939903809398032D
:101DF0008091920390919303892B09F4DFC4888921
:101E00009989009709F4DAC4889690939703809390
:101E1000960388E18093260480E587CF8F70833016
:101E200009F031CFF1CE853009F0A1C0E0918703F0
:101E3000F091880384819581892B09F424CF109235
:101E40008F0310928E0381E294E090939903809324
:101E500098039093910380939003109293031092B0
:101E60009203109297031092960388E080938D035B
:101E70000E94760A8091920390919303009709F44F
:101E800002CF9C01245E3F4F30939703209396032B
:101E90003093070420930804E0918703F0918803AE
:101EA000208520930D0421E120930E0408969827A5
:101EB0008927982790931E0480931D041092200474
:101EC00010921F048481958190931A0480931904C1
:101ED0008681978190931C0480931B0410921204B6
:101EE00010921104109214041092130480819181B5
:101EF0009093160480931504828193819093180423
:101F0000809317048DE294E0909399038093980353
:101F100081E10E94FF0780959095009709F403C125
:101F20009093200480931F0485E48093050410920D
:101F3000060410920C0410920B048091DA02909126
:101F4000DB0201969093DB028093DA0290930904FE
:101F500080930A041092100410920F040E948708C4
:101F6000809590959093100480930F045EC08091AB
:101F70000504853409F087CEC0900704D12CDC2CF1
:101F8000CC2480910804C80ED11C809196039091B6
:101F900097038C159D0508F476CED0929703C092D6
:101FA000960380910B048F7309F06DCE10910C0491
:101FB000111169CE0E948708019609F064CE8091C4
:101FC0000E04863009F4B2C08131D9F1813009F0B4
:101FD0005ACE80911904883009F055CE1092190418
:101FE00080911B0490911C04873FCFEF9C0738F130
:101FF000099690931C0480931B0480911104909186
:102000001204909316048093150480911304909108
:1020100014049093180480931704109212041092E1
:102020001104109214041092130410928D03DF9186
:10203000CF911F91FF90EF90DF90CF900895089679
:10204000D8CF1CE1C11AD108D0929703C092960351
:1020500081E294E0909399038093980380911F0408
:1020600090912004892BD9F420911B0430911C04F9
:102070004091190450911A04609111047091120456
:10208000A0911304B0911404EBE5F3E083E0E7388A
:10209000F80761F4F0938803E0938703F4CD81E1BE
:1020A0000E94FF07019609F0EECDDECF8481958175
:1020B0000097B9F182179307A1F586819781009760
:1020C00019F08417950769F5808191810097D1F403
:1020D000C281D381CD2BE9F4F0938803E093870389
:1020E00010928F0310928E0382E080938D0381E221
:1020F00094E0909391038093900310929303109235
:102100009203B6CE8F3F980721F4C281D3812196E6
:1021100019F38617970729F482819381A817B907C5
:10212000D9F23B96B3CF8FEF9FEFFACE86E00E94B5
:10213000FF07019609F0A7CD80911B0490911C0424
:102140004091190450911A04609111047091120485
:10215000E0911304F0911404C3EED2E0298D222300
:10216000A9F0AC81BD818A179B0781F4AE81BF8144
:102170004A175B0759F4A881B9816A177B0731F4C4
:10218000AA81BB81EA17FB0709F44EC16E9623E0D2
:10219000CD33D20719F310F3209126042F73223088
:1021A00061F49093E2028093E1021092E002892BA5
:1021B00009F48EC084E08093E0028091260482FDC1
:1021C00062CD84E18093260488E290E090939703A7
:1021D0008093960380E580932504309120048091BC
:1021E00024048093200420911F0480912304809371
:1021F0001F042093230490911E0480912204809355
:102200001E049093220480911D048093E00240916B
:10221000210440931D04809321043F5F30932404E4
:1022200031110DC02F5F20932304211108C09F5F3F
:1022300090932204911103C08F5F809321048091B9
:10224000190490911A049093E2028093E102209184
:102250001B0430911C0430931A04209319049093AA
:102260001C0480931B04809111049091120490939C
:102270001604809315048091130490911404909394
:1022800018048093170410921204109211041092F3
:1022900014041092130480E480930D04809196033B
:1022A00090919703909307048093080410922C0454
:1022B00010922B0410922A041092290486E00E94A6
:1022C000FF078095909590932A04809329042CCE43
:1022D000E3EEF2E090E080E0D0E0C0E084309105F1
:1022E00031F484E08093E002209781F4CCCC3E2F3F
:1022F0002F2F618D611163C08093E0022EE1289F32
:10230000E001299FD00D1124CD51DD4FD0938F03D3
:10231000C0938E0383E08A8F888F1E8A84E08F8B20
:102320001B8E1D821C825F834E83809111049091CD
:1023300012049983888380911304909114049B83E1
:102340008A8381E0898F809189038C8780918A03B9
:102350008D8780918B038E8780918C038F8781E09E
:1023600090E0998B888B809120048B8780911F044B
:102370008A8780911E04898780911D04888781E067
:1023800090E00E94B01A80912504982F907F91359B
:1023900008F442C082958F708550990B880F991F61
:1023A000880F991FE12FF0E0E817F9072CF4E950A6
:1023B000FC4F36A9311112C01093E0022DC06730D6
:1023C00031F4209731F0728D6A8D671710F03C2F31
:1023D0002D2F01967E96C32FD22F80CF313011F44E
:1023E0001F5FE0CF27A93230D9F42430C9F410930D
:1023F000E00280AD91AD8927982789279093E2026A
:102400008093E102813012E0910710F080E092E0C9
:102410009B8B8A8B9D8B8C8B80E1809326046FCC69
:10242000222351F2120FBECFD0938F03C0938E039D
:1024300010928D039091260492FF07C0198E80E2BE
:1024400080938D030E94A70C1ECC80912504829559
:102450008F70880F880F8093E002C81AD108760128
:1024600084E1E81AF108F0929703E09296032F7046
:10247000223021F4892F8F738231D1F0E114F104DD
:1024800019F4892F8370A1F039852A858B855091A5
:102490001D0448855413C2C140911E044313BEC19C
:1024A00030911F043213BAC1209120042813B6C101
:1024B00094FF49C0688979896115710509F443C0A1
:1024C000CE010C960E947D1A309121048091DC028D
:1024D000381339C0209122048091DD02281333C0C3
:1024E000909123048091DE0298132DC080912404E2
:1024F0004091DF02841327C03C872D879E878F87FA
:10250000988D8B8D811118C08E892A8D921B282F52
:10251000269526952695921B890F8E8B97FD919572
:102520002F89322F36953695231B920F9F8B8695D8
:1025300086958695890F888F81E080938D03888D9D
:102540008A8F198A188A298DE22FEF70E150E830BE
:1025500008F099CBF0E08827EF54FD4E8F4F0C9494
:10256000EC1DB912D2123C13F1131A142B140E14D1
:10257000EA1380918D0380FF86CB83E0898F80E40E
:1025800080938D03198A188AE114F10431F082E4F2
:1025900080938D03C7010E94B01A1092930310928A
:1025A000920335CB80918D0380FF5FC0809126041C
:1025B0008F73823109F059C080912504982F907F44
:1025C000913598F182958F708550990B880F991FDE
:1025D000880F991FE12FF0E0E817F9072CF4E95074
:1025E000FC4F36A9311103C01093E0021EC03130F8
:1025F00011F41F5FEFCF27A9323099F5243089F508
:102600001093E00280AD91AD892798278927909398
:10261000E2028093E102813012E0910710F080E045
:1026200092E09B8B8A8B9D8B8C8B83E0898F809132
:102630001D04888780911E04898780911F048A87E2
:10264000809120048B8781E090E00E94B01A82E4A0
:1026500080938D03198A188A10929703109296031B
:102660009CCF222309F2120FB5CF80E280938D0315
:102670000E94A70C198EA1CD8091260480FF20C056
:1026800024FD1EC088899989892B09F0FCCAC601DE
:1026900043970E94B01A80918D03982F9061909378
:1026A0008D03EF2819F0826180938D030E94A70C9F
:1026B00081E090E0998B888B88E0898F1B8E81CB9D
:1026C00085FF14C080912B0490912C0498278927B2
:1026D0009827AC01435D5B4F509399034093980357
:1026E000E81AF90AF0929703E09296034091960354
:1026F0005091970390918D034115510541F024FDB0
:1027000006C0926090938D03CA010E94B01A809116
:102710002704282F30E0322F222780912804820FAF
:10272000932F911D9093E2028093E1022C893D89C1
:102730002817390710F0892B21F43093E2022093F7
:10274000E1028091E1029091E2029B8B8A8B809161
:102750008D03837009F497CA20CF84FF0AC01092BA
:1027600093031092920381E090E0998B888B84E030
:10277000A4CF209192033091930321153105B9F034
:1027800080FF02C0198A188A88899989009789F47C
:102790008A899B898217930720F4909393038093EF
:1027A00092038091920390919303998B888B1B8E57
:1027B00017CB9093930380939203F9CF80918D036D
:1027C00081FF61CA88E290E090939703809396031B
:1027D00080E120CB80918D0380FF55CA198E80E166
:1027E0002FCEE114F10419F0C7010E94B01A8091B4
:1027F0008D0381709091260490FF15C0882381F08D
:1028000087E0898F1A8E198A188A81E090E00E94E9
:10281000B01A80E180938D030E94A70C80E1D2CA98
:1028200086E0898FF2CF882399F085E0898F198A15
:10283000188A29CAE114F10419F0C7010E94B01ADC
:102840008091260480FF04C087E0898F1A8EDDCF37
:10285000EF2821F718CA80918D0380FF14CA87E002
:10286000898F1A8E10CA82E0809327041092280460
:1028700012CDCF93DF93EC012C853D8521153105D9
:1028800029F490E080E0DF91CF910895EA89EE236A
:10289000C1F381E08B8B85E0E89FF0011124EE59B4
:1028A000FB4F8E859F8507969383828330938803A1
:1028B0002093870385E00E94E00D8091960390911C
:1028C0009703892BF1F2CE010E960E94C20B81E094
:1028D00090E0D9CF0895CF93DF93EC0189890E94CE
:1028E000CA04198ADF91CF9108950F931F93CF9354
:1028F000DF931F92CDB7DEB7FC018189882389F071
:1029000041E050E070E060E00E945F058C01BE0194
:102910006F5F7F4F0E94F404898190E001301105C0
:1029200011F08FEF9FEF0F90DF91CF911F910F91DB
:102930000895EF92FF920F931F93CF93DF93FC01C3
:102940008189882391F1EB017F0170E060E00E94B2
:102950005F058C01BE010E94F404F701C1898C2F30
:102960000E94EA048017910769F48C2F0E94CA0420
:10297000F701118AC801DF91CF911F910F91FF904C
:10298000EF90089585E0C89FF0011124EE59FB4FA8
:1029900080819181800F911F9183808382819381B7
:1029A000801B910B93838283E5CF80E090E0E3CF9F
:1029B000FC0181890C94EA04CF93DF93EC018989AF
:1029C00081110E94CA048889898B188ADF91CF916E
:1029D0000C94EA04EF92FF920F931F93CF93DF932F
:1029E00000D01F92CDB7DEB78C01FB01828181112F
:1029F00009C08381811106C08481811103C0858152
:102A00008823D9F041155105C1F0D8011C96ED90ED
:102A1000FC90228133813A832983848195819C8330
:102A20008B83742F652FE114F10469F1F70177832B
:102A300066833183208393838283D8011C968D9192
:102A40009C911D97892B89F152968C9181112DC0F3
:102A50008EE096E00E944306F801828B2BE230E084
:102A60003787268721E090E0811101C020E0822F86
:102A70000F900F900F900F90DF91CF911F910F91BA
:102A8000FF90EF900895CE0101960E94DF0BD801D0
:102A90001D969C938E931C97009739F09801225FA6
:102AA0003F4FFC0132872187C8CF80E090E0E0CF24
:102AB0006F927F928F929F92AF92BF92CF92DF924E
:102AC000EF92FF920F931F93CF93DF93CDB7DEB7B3
:102AD000E5970FB6F894DEBF0FBECDBF4C018B015A
:102AE0003A0191E8E92E92E0F92EFA82E9821B82FE
:102AF0001C821D821E82CE0109960E948F0CFAA6AE
:102B0000E9A61BA61CA61DA61EA6809127079091CC
:102B10002807A0912907B0912A078F8F98A3A9A30E
:102B2000BAA38B839C83AD83BE8318861F82F80172
:102B3000D8018D91882309F45BC08E32D1F3805384
:102B40008A30B8F34B815C816D817E818091390739
:102B500090913A07A0913B07B0913C07481759075D
:102B60006A077B0709F47DC20E94C2036F70772752
:102B70007C5FCE0109960E94490C813009F074C235
:102B800081E892E09E8F8D8F8B819C81AD81BE818B
:102B90008F8F98A3A9A3BAA345E350E0BE01635E5B
:102BA0007F4FCE0109960E94EA14892B09F073C069
:102BB00010E000E0CE0109960E946E0C0130110574
:102BC00009F44FC0C801E5960FB6F894DEBF0FBEFA
:102BD000CDBFDF91CF911F910F91FF90EF90DF90CC
:102BE000CF90BF90AF909F908F907F906F900895FF
:102BF00030E020E090E080E05AE04191442319F178
:102C0000843091050CF09ECF4E3281F42F3F310578
:102C100011F00CF097CFABE2B0E0AC0FBD1FA80FE6
:102C2000B91F2C93019630E020E0E7CF529FB0010E
:102C3000539F700D1124242F440F330B205331095F
:102C4000260F371FDACF2F3F310511F00CF07ACF66
:102C5000843091050CF076CF8C0F9D1FDC019B9684
:102C60002C93D401ED91FC910488F589E02D81E845
:102C700092E09E8F8D8F8BA59CA5ADA5BEA58F8F55
:102C800098A3A9A3BAA3A301BE01635E7F4FC401A9
:102C900019958C0197CF0E94C20378876F8342E019
:102CA00050E0BE01695F7F4FCE0109960E94A707E1
:102CB00081E090E09E8F8D8F42E050E0BE01635E28
:102CC0007F4FCE0109960E94A70780E091E09E8F7A
:102CD0008D8F42E050E0BE01635E7F4FCE010996CA
:102CE0000E94A7071E8E1D8E42E050E0BE01635E6B
:102CF0007F4FCE0109960E94A70742E050E0BE0137
:102D0000635E7F4FCE0109960E94A70742E050E024
:102D1000BE01635E7F4FCE0109960E94A70778012E
:102D2000F8018081882311F18701D8018D916D010F
:102D3000882311F08E32C1F45801AE18BF081A145E
:102D40001B0484F4AFA641E050E0BE01615D7F4FFB
:102D5000CE0109960E94A707A501B701CE010996E9
:102D60000E94A7077601DCCF8601DFCF1FA641E0D6
:102D700050E0BE01615D7F4FCE0109960E94A7071A
:102D800000E011E01E8F0D8F42E050E0BE01635E57
:102D90007F4FCE0109960E94A7071E8F0D8F42E03C
:102DA00050E0BE01635E7F4FCE0109960E94A707E7
:102DB000CE0109960E943914892B09F4F9CE83E0DB
:102DC000E82EF12C25C0AB80BC80CD80DE80BE011A
:102DD000675F7F4FCE014D960E9464078F8D98A14B
:102DE000A9A1BAA1A816B906CA06DB0631F4CE011C
:102DF00009960E945507C59749F10EEF1FEFE1E0D4
:102E0000EE1AF10809F4D6CE0F3F100709F0D2CE22
:102E10000E94C2035B016C01CE0109960E94DC1482
:102E20001816190684F20E94C2036A197B098C09DC
:102E30009D09693873418105910508F00FC162E36E
:102E400070E080E090E00E949003E6CFCE0109960A
:102E50000E94D8140DEF1FEF0C978CF24CE050E05D
:102E6000BE01635E7F4FCE0109960E94CC088F8D14
:102E700098A19827892798279CAB8BAB4F815885C1
:102E80002D8D3E8D4217530711F497FD07C0CE01DB
:102E900009960E946B140CEF1FEFB1CF8F709270E8
:102EA000892B39F0CE0109960E946B140BEF1FEFAE
:102EB000A6CFABA0BCA0BA24AB24BA2410E000E09B
:102EC000A114B104E1F4CE0109960E946B140AEF3B
:102ED0001FEF95CF8FA581111AC0CE0109960E94D0
:102EE0008A07CE0109960E948A07CE0109960E94A0
:102EF0008A07CE0109960E948A070F5F1F4F89A19A
:102F00009AA198278927982708171907B8F441E04C
:102F100050E0BE01615D7F4FCE0109960E94CC0852
:102F20008FA58823B9F28FA59FEF980F9FA78823BD
:102F300089F2CE0109960E948A07F5CFD12CC12CC7
:102F400041E050E0BE016B5C7F4FCE0109960E94CC
:102F5000CC088DA9982F907C69F4882399F08DA9CD
:102F60009FEF980F9DAB882351F0CE0109960E94E8
:102F70008A07F5CFCE0109960E948A071DAA8DA95E
:102F80008111DECF42E050E0BE016F5C7F4FCE0189
:102F900009960E94CC0842E050E0BE01615D7F4F7F
:102FA000CE0109960E94CC08CE0109960E948A079C
:102FB000CE0109960E948A07CE0109960E948A07CF
:102FC000CE0109960E948A0742E050E0BE016D5C86
:102FD0007F4FCE0109960E94CC0889A99AA9811534
:102FE0009140E9F48FA598A981159140C1F48BA96E
:102FF0009CA98115944039F0CE0109960E946B146A
:1030000007EF1FEFFCCE44E050E0BE01655D7F4F4F
:10301000CE0109960E94CC0801E010E0F0CE10E04D
:1030200000E08BA99CA998278927982708171907DA
:1030300038F4CE0109960E948A070F5F1F4FF1CF27
:10304000BFEFCB1ADB0ACA14DB0409F079CFCE013B
:1030500009960E946B1406EF1FEFD1CE0FEF1FEF02
:10306000CECE0EEF1FEFAECD10E000E0ABCD1F9245
:103070000F920FB60F9211240BB60F922F933F931E
:103080004F935F936F937F938F939F93AF93BF9370
:10309000EF93FF9389E296E00E941F02FF91EF9168
:1030A000BF91AF919F918F917F916F915F914F9160
:1030B0003F912F910F900BBE0F900FBE0F901F905E
:1030C00018951F920F920FB60F9211240BB60F9204
:1030D0002F938F939F93EF93FF93E0913906F09195
:1030E0003A068081E0913F06F091400682FD1DC0C6
:1030F0009081809142068F5F8F73209143068217E3
:1031000041F0E0914206F0E0E75DF94F958F809342
:103110004206FF91EF919F918F912F910F900BBEDF
:103120000F900FBE0F901F9018958081F2CF1F92C5
:103130000F920FB60F9211242F933F938F939F936B
:10314000AF93BF938091210690912206A091230610
:10315000B09124063091200623E0230F2D3758F537
:103160000196A11DB11D2093200680932106909306
:103170002206A0932306B093240680912506909101
:103180002606A0912706B09128060196A11DB11D23
:103190008093250690932606A0932706B0932806D1
:1031A000BF91AF919F918F913F912F910F900FBE43
:1031B0000F901F90189526E8230F0296A11DB11DB0
:1031C000D2CF1F920F920FB60F9211240BB60F920F
:1031D0002F933F934F935F936F937F938F939F931F
:1031E000AF93BF93EF93FF93E0911E06F0911F06FC
:1031F000309749F0A685B7858585968D91FF16C0D5
:103200009C918923B1F4FF91EF91BF91AF919F9170
:103210008F917F916F915F914F913F912F910F907F
:103220000BBE0F900FBE0F901F9018959C91892395
:1032300051F7A389B4899C918589809589238C93C2
:10324000868997890197F1F7608D718DA685B7857D
:10325000558538E020E0CB010197F1F7822F90E00F
:1032600095958795282F4C91452309F0206831507A
:1032700091F7868D81FD209580911C0690E0019646
:103280008F73992730911D06381799F0A0911C066D
:10329000B0E0A452BA4F2C9380931C06828D938D7C
:1032A0000197F1F7A389B4898C919589892B8C9327
:1032B000AACF868D8160868FF1CF1F920F920FB6B5
:1032C0000F9211240BB60F922F933F934F935F935E
:1032D0006F937F938F939F93AF93BF93EF93FF93DE
:1032E0008091B900887F803609F44DC008F040C055
:1032F000883209F4A7C028F5803109F49BC0C8F4CE
:10330000882309F4F7C0883009F494C0FF91EF9145
:10331000BF91AF919F918F917F916F915F914F91ED
:103320003F912F910F900BBE0F900FBE0F901F90EB
:103330001895883109F486C0803241F78093B5052D
:1033400014C0803409F49BC040F48033B9F388334F
:10335000E9F68093B50585ECAEC0803509F483C0ED
:10336000883509F494C0883489F60E947809CECF54
:10337000883909F48AC038F5883729F050F488363E
:1033800011F0803719F683E08093B6051092B405EA
:1033900055C0883809F479C0803919F0803809F0AF
:1033A000B5CF8091B405803208F06FC0E091B405CC
:1033B00081E08E0F8093B4058091BB00F0E0EC5665
:1033C000FA4F80833BC0803B39F0D0F4803A09F457
:1033D00077C0883A09F09ACF84E08093B6051092BE
:1033E000930510929205F0E0E0E019958091920526
:1033F00081110FC081E0809392051092720509C07F
:10340000803C09F4A8CF883C09F4A5CF883B09F09B
:103410007DCFE091930581E08E0F80939305F0E0DE
:10342000EE58FA4F80818093BB0090919305809174
:10343000920529C08091DB058093BB0085EC8093C9
:10344000BC0064CF9091DA058091D905981758F5A2
:10345000E091DA0581E08E0F8093DA05F0E0E75421
:10346000FA4F8081E9CFE091DA0581E08E0F8093F9
:10347000DA058091BB00F0E0E754FA4F8083909129
:10348000DA058091D9059817C8F285E8D8CFE09180
:10349000DA0581E08E0F8093DA058091BB00F0E0C1
:1034A000E754FA4F80838091B80581115ECF81E0A7
:1034B0008093B70584EA8093BC001092B60526CFAE
:1034C00085EC8093BC001092B6058091B4058032E3
:1034D00030F4E091B405F0E0EC56FA4F10826091C0
:1034E000B40570E084E995E0F0E0E0E01995109211
:1034F000B4050CCF1092B50538CFFC013381360FDF
:103500003093DF02A72FBB2792819A0F9093DE02A0
:1035100021812093DD0240814093DC029A171B0633
:1035200048F481E0820F8093DD02811103C04F5F78
:103530004093DC0277273617170688F49F5F909335
:10354000DE0291110CC08091DD028F5F8093DD025D
:10355000811105C08091DC028F5F8093DC020895A9
:10356000CF93DF93C0918E03D0918F03BC01CE0126
:1035700008960E947D1AECEDF2E0808188878181B7
:10358000898782818A8783818B87DF91CF91089594
:1035900028E0E1E0F2E0DC0101900D922A95E1F7EC
:1035A000FC01118610860895CF92DF92EF92FF9270
:1035B0000F931F93CF93DF9310922C0610922B063C
:1035C000E8EECE2EE3E0DE2EE12CF12CC0922D06AB
:1035D000D0922E06E0922F06F09230068DE592E012
:1035E00090932A068093290685EC90E09093360606
:1035F0008093350684EC90E09093380680933706EC
:1036000080EC90E090933A068093390681EC90E04C
:1036100090933C0680933B0682EC90E090933E06AC
:1036200080933D0686EC90E09093400680933F06A1
:1036300010924206109243061092440610924506DC
:10364000C1E8D2E0D093C706C093C6061092C80660
:103650001092C9061092CA061092CB06D093CD06DE
:10366000C093CC061092CE061092CF061092D006D0
:103670001092D106D0932C07C0932B0710922D07E0
:1036800010922E0710922F0710923007D093260722
:10369000C093250710922707109228071092290738
:1036A00010922A0781E197E00E948F0CD093320795
:1036B000C0933107109233071092340710923507E8
:1036C00010923607D0933807C09337071092390706
:1036D00010923A0710923B0710923C07D0933E0796
:1036E000C0933D0710923F07109240071092410788
:1036F00010924207D0934407C093430710924507A6
:1037000010924607109247071092480710924C07F4
:1037100010924B07C0924D07D0924E07E0924F0790
:10372000F09250078FE692E090934A078093490702
:103730001092600710925F07109262071092610763
:103740001092640710926307109266071092650743
:10375000609167076E7F6D7F609367076695617004
:1037600081E0682787E00E94DF024DEA52E0FA011B
:10377000649187E692E0FC012491222399F030E0E5
:10378000220F331FF901E45DFD4FA591B491F901BA
:10379000EA5BFD4F259134912FB7F8943C91632B50
:1037A0006C932FBFFA01449140935907FC01849117
:1037B000E82FF0E0EE0FFF1FEA5BFD4F859194913B
:1037C00090935B0780935A070EEA12E0F801249168
:1037D000C8E6D2E0FE0184918823C9F090E0880F0A
:1037E000991FFC01E45DFD4FA591B491FC01EA5BDA
:1037F000FD4F459154913FB7F8949C91822F80954D
:1038000098239C93DA019C9189238C933FBF8091EC
:10381000670781FD04C061E088E00E94DF0288E064
:10382000F82EF0925507F801049100935607FE0117
:10383000C491EC2FF0E0EE0FFF1FEE5EFD4F85917F
:1038400094919093580780935707C1E8D2E0D093A2
:103850006907C093680710926A0710926B0710926D
:103860006C0710926D07D093F407C093F307109282
:10387000F5071092F6071092F7071092F8078BEAF7
:1038800097E00E948F0C86E0E9E0F2E0AFEBB7E052
:1038900001900D928A95E1F7D093C607C093C507B2
:1038A000D093CC07C093CB0790EC9093C70788EADE
:1038B0008093C807C1E0C093C90727E02093CA07D7
:1038C0009093CD078093CE07C093CF0789E0809374
:1038D000D00781ED97E00E94C81AEFE0F2E0ABED6F
:1038E000B7E001900D92FA94E1F7E3EEF7E080E1A2
:1038F000DF011D928A95E9F781EA97E00E94C81AD4
:10390000C093720786E0E7E1F2E0A3E9B7E0019037
:103910000D928A95E1F780911D0290911E02A0916F
:103920001F02B09120028093990790939A07A09369
:103930009B07B0939C078091210290912202A09155
:103940002302B091240280939D0790939E07A09339
:103950009F07B093A00710927307109274071092FC
:1039600075071092760710927707109278071092D9
:10397000790710927A0787EF9FEF909371078093F2
:10398000700710927B0710927C0710927D071092AF
:103990007E0710927F071092800710928107109285
:1039A0008207109283071092840710928507109265
:1039B0008607109287071092880710928907109245
:1039C0008A0710928B0710928C0710928D07109225
:1039D0008E0710928F071092900710929107109205
:1039E0009207DF91CF911F910F91FF90EF90DF90A1
:1039F000CF900895789484B5826084BD84B5816049
:103A000084BD85B5826085BD85B5816085BD8091A9
:103A10006E00816080936E00109281008091810021
:103A20008260809381008091810081608093810019
:103A3000809180008160809380008091B1008460DB
:103A40008093B1008091B00081608093B00080913C
:103A500091008260809391008091910081608093B9
:103A60009100809190008160809390008091A100EE
:103A700082608093A1008091A10081608093A10069
:103A80008091A00081608093A000809121018260DC
:103A90008093210180912101816080932101809197
:103AA000200181608093200180917A00846080935E
:103AB0007A0080917A00826080937A0080917A0007
:103AC000816080937A0080917A00806880937A0088
:103AD0001092C100E0913906F0913A0682E08083AD
:103AE000E0913506F09136061082E0913706F091AC
:103AF000380680E1808310924106E0913D06F09106
:103B00003E0686E08083E0913B06F0913C06808192
:103B100080618083E0913B06F0913C068081886063
:103B20008083E0913B06F0913C0680818068808331
:103B3000E0913B06F0913C0680818F7D808363E8B5
:103B400072E089E296E00E94D30868E872E089E2B8
:103B500096E00E94D3080E94AE02F1CF8FE692E079
:103B600090934A078093490780911E0690911F0603
:103B70008954974071F4E0915C07F0915D07908162
:103B800080915E0780958923808310921F06109292
:103B90001E060895A1E21A2EAA1BBB1BFD010DC033
:103BA000AA1FBB1FEE1FFF1FA217B307E407F507ED
:103BB00020F0A21BB30BE40BF50B661F771F881FC9
:103BC000991F1A9469F760957095809590959B015F
:103BD000AC01BD01CF010895EE0FFF1F881F8BBF01
:103BE0000790F691E02D1994FB01DC0102C00190D1
:103BF0000D9241505040D8F70895DC0101C06D93FB
:103C000041505040E0F7089511E0C7E7D1E000E0EF
:103C100006C0802FFE010E94EC1D2196011DC837B1
:103C2000D10780E00807A9F7F894FFCFFF0102034E
:103C30000405060708000102030405FFFFB4B400F1
:103C400000000037003800390002000400010001C4
:103C50000000000000BF07A707D7076B14D8148A1D
:103C6000077514490CD5076E0CEA1458153914DC85
:103C7000149914CC0864075507000000000000FFE9
:103C8000FFFFFFFFFF000000004102AB01D8018EE3
:103C9000020902E701FB0100000000E703AB01D7C6
:103CA00007E60343045904CE03000000002E094C2C
:083CB0006F6F70000D0A0000A7
:020000040003F7
:10E000000D9489F10D94B2F10D94B2F10D94B2F129
:10E010000D94B2F10D94B2F10D94B2F10D94B2F1F0
:10E020000D94B2F10D94B2F10D94B2F10D94B2F1E0
:10E030000D94B2F10D94B2F10D94B2F10D94B2F1D0
:10E040000D94B2F10D94B2F10D94B2F10D94B2F1C0
:10E050000D94B2F10D94B2F10D94B2F10D94B2F1B0
:10E060000D94B2F10D94B2F10D94B2F10D94B2F1A0
:10E070000D94B2F10D94B2F10D94B2F10D94B2F190
:10E080000D94B2F10D94B2F10D94B2F10D94B2F180
:10E090000D94B2F10D94B2F10D94B2F10D94B2F170
:10E0A0000D94B2F10D94B2F10D94B2F10D94B2F160
:10E0B0000D94B2F10D94B2F10D94B2F10D94B2F150
:10E0C0000D94B2F10D94B2F10D94B2F10D94B2F140
:10E0D0000D94B2F10D94B2F10D94B2F10D94B2F130
:10E0E0000D94B2F141546D656761323536300041AF
:10E0F000726475696E6F206578706C6F72657220DE
:10E1000073746B3530305632206279204D4C530099
:10E11000426F6F746C6F616465723E004875683F52
:10E1200000436F6D70696C6564206F6E203D200048
:10E130004350552054797065202020203D20005FF9
:10E140005F4156525F415243485F5F3D2000415658
:10E1500052204C696243205665723D20004743437C
:10E160002056657273696F6E203D20004350552024
:10E1700049442020202020203D20004C6F7720663D
:10E18000757365202020203D20004869676820665F
:10E190007573652020203D200045787420667573D6
:10E1A00065202020203D20004C6F636B2066757336
:10E1B000652020203D20004D617220203720323024
:10E1C000313300312E362E3800342E332E350056A2
:10E1D00023202020414444522020206F7020636F70
:10E1E00064652020202020696E73747275637469E1
:10E1F0006F6E2061646472202020496E74657272B3
:10E20000757074006E6F20766563746F7200726A49
:10E210006D702020006A6D70200057686174207056
:10E220006F72743A00506F7274206E6F7420737541
:10E2300070706F72746564004D7573742062652030
:10E2400061206C6574746572002000577269747483
:10E25000696E672045450052656164696E672045B7
:10E26000450045452065727220636E743D00504F35
:10E27000525400303D5A65726F2061646472003FF1
:10E280003D43505520737461747300403D454550C3
:10E29000524F4D207465737400423D426C696E6B41
:10E2A000204C454400453D44756D70204545505215
:10E2B0004F4D00463D44756D7020464C415348001B
:10E2C000483D48656C70004C3D4C69737420492F83
:10E2D0004F20506F72747300513D51756974005234
:10E2E0003D44756D702052414D00563D73686F7707
:10E2F00020696E7465727275707420566563746FF0
:10E30000727300593D506F727420626C696E6B00BD
:10E310002A0011241FBECFEFD1E2DEBFCDBF01E046
:10E320000CBF12E0A0E0B2E0EEE1FDEF03E00BBFB6
:10E3300002C007900D92A030B107D9F712E0A0E01B
:10E34000B2E001C01D92AE30B107E1F70F9460F367
:10E350000D948DFE01E20EBF0FEF0DBF11241FBE05
:10E360000D9460F30D9400F020E030E040ED57E0B4
:10E3700005C0FA013197F1F72F5F3F4F2817390792
:10E38000C0F308959C01260F311DC901A0E0B0E043
:10E390002F5F3F4FABBFFC018791882361F08093D3
:10E3A000C6008091C00086FFFCCF8091C0008064D1
:10E3B0008093C000EACF08958DE08093C6008091DD
:10E3C000C00086FFFCCF8091C00080648093C000B5
:10E3D0008AE08093C6008091C00086FFFCCF8091C8
:10E3E000C00080648093C00008950F94C2F10F9420
:10E3F000DCF10895FC019081992359F09093C600B7
:10E400008091C00086FFFCCF8091C0008064809323
:10E41000C0003196992379F70895282F982F929567
:10E420009F70892F805D8A3308F0895F8093C600D2
:10E430008091C00086FFFCCF8091C00080648093F3
:10E44000C000822F8F70982F905D9A3308F0995FEB
:10E450009093C6008091C00086FFFCCF8091C000E1
:10E4600080648093C00008959C01FB01853691056E
:10E470001CF46330710594F0C90164E670E00F94F8
:10E480002EFE605D7F4F6093C6008091C00086FFC6
:10E49000FCCF8091C00080648093C0002B30310598
:10E4A00014F43297B4F0C90164E670E00F942EFEC4
:10E4B0006AE070E00F942EFE605D7F4F6093C600AF
:10E4C0008091C00086FFFCCF8091C0008064809363
:10E4D000C000C9016AE070E00F942EFEC0968093E0
:10E4E000C6008091C00086FFFCCF8091C000806490
:10E4F0008093C00008951F93182F8EE692EE60E07F
:10E500000F94C2F11093C6008091C00086FFFCCF2B
:10E510008091C00080648093C0000F94DCF11F9153
:10E5200008952F923F924F925F926F927F928F92B7
:10E530009F92AF92BF92CF92DF92EF92FF920F9392
:10E540001F93DF93CF93CDB7DEB762970FB6F894E2
:10E55000DEBF0FBECDBF382E622ECA01DB015C01CB
:10E560006D01772420E2222E2E010894411C511CBB
:10E570008BC081E0A81680E0B80681E0C80680E084
:10E58000D80628F0C601AA27BB270F940DF2BB2797
:10E59000AD2D9C2D8B2D0F940DF28A2D0F940DF225
:10E5A0002092C6008091C00086FFFCCF8091C00001
:10E5B00080648093C0009DE29093C6008091C0006B
:10E5C00086FFFCCF8091C00080648093C0002092C1
:10E5D000C6008091C00086FFFCCF8091C00080649F
:10E5E0008093C00019828601750188249924A1E0D6
:10E5F0003A1651F03A1620F0B2E03B1661F409C029
:10E600000BBFF701779007C0C7010F9477FE782EF4
:10E6100002C0F7017080872D0F940DF22092C60082
:10E620008091C00086FFFCCF8091C0008064809301
:10E63000C000872D8052F401EF70F0708F3520F408
:10E64000E40DF51D708204C0E40DF51D8EE280839B
:10E650000894E11CF11C011D111D0894811C911CE2
:10E6600090E18916910409F0C2CF80E190E0A0E02A
:10E67000B0E0A80EB91ECA1EDB1E198AC2010F9493
:10E68000FAF10F94DCF16A94662009F072CF629679
:10E690000FB6F894DEBF0FBECDBFCF91DF911F91B3
:10E6A0000F91FF90EF90DF90CF90BF90AF909F9031
:10E6B0008F907F906F905F904F903F902F90089534
:10E6C0002F923F924F925F926F927F928F929F9282
:10E6D000AF92BF92CF92DF92EF92FF920F931F9370
:10E6E000DF93CF93CDB7DEB7CD53D1400FB6F894BB
:10E6F000DEBF0FBECDBF01E20EBF0FEF0DBF94B75F
:10E70000F894A89514BE80916000886180936000A1
:10E7100010926000789493FF05C0E0910002F091A0
:10E7200001021995279A2F9A8091C00082608093E8
:10E73000C00080E18093C40088E18093C1000000A4
:10E74000EE24FF24870144E0A42EB12CCC24DD2448
:10E7500024C0C5010197F1F70894E11CF11C011DCB
:10E76000111D21E2E2162EE4F20620E0020720E06D
:10E77000120718F031E0C32ED12CC801B70127ECE5
:10E780003BE140E050E00F9441FE611571058105C9
:10E79000910519F485B1805885B98091C00087FD35
:10E7A00003C0C114D104A9F2A6014F5F5F4FC25E3E
:10E7B000DE4F59834883CE51D140C25EDE4F8881FF
:10E7C0009981CE51D140019711F00D9410FEC05D9A
:10E7D000DE4F19821882C053D14060E0C15DDE4F28
:10E7E0001882CF52D14088249924C35DDE4F19820C
:10E7F0001882CD52D140C05EDE4F188219821A8233
:10E800001B82C052D140CE5CDE4F188219821A8220
:10E810001B82C253D140EE24FF2487010BBFF701B6
:10E8200007911691C45CDE4F19830883CC53D14005
:10E830000D940BFEC25EDE4F28813981CE51D1404E
:10E840002130310509F52091C600C25EDE4F1982E4
:10E850001882CE51D14022C02F5F3F4F4F4F5F4FA4
:10E86000213082E138078AE7480780E0580780F0C6
:10E87000C45CDE4FE881F981CC53D140EF5FFF4F9C
:10E8800019F0EE27FF27099420E030E040E050E047
:10E890008091C00087FFE0CF2091C600C35DDE4FAE
:10E8A00048815981CD52D1404F5F5F4FC35DDE4FEC
:10E8B00059834883CD52D140213209F063C64A3092
:10E8C000510508F05FC60894811C911C53E0851621
:10E8D000910409F059C600E010E018C081E280936D
:10E8E000C6008091C00086FFFCCF8091C00080648C
:10E8F0008093C0002F5F3F4F2931310579F70F9486
:10E90000DCF10F5F1F4F0530110519F020E030E0FA
:10E91000E5CF10920A0210920B0210920C02109294
:10E920000D02109206021092070210920802109235
:10E930000902109202021092030210920402109235
:10E9400005028FEE90EE60E00F94F5F180E191EE1C
:10E9500060E00F94C2F18091C00087FFFCCF9091DE
:10E96000C600903608F09F759032B8F09093C600BC
:10E970008091C00086FFFCCF8091C00080648093AE
:10E98000C000A0E2A093C6008091C00086FFFCCF2B
:10E990008091C00080648093C000983409F4D7C18E
:10E9A0009934B8F4923409F459C1933458F490333B
:10E9B00019F1903308F4E3C59F33A1F1903409F0C5
:10E9C000DEC5BDC0953409F470C1963409F0D7C5D1
:10E9D00098C1923509F42BC2933538F49C3409F46C
:10E9E000F5C1913509F0CBC518C2963509F445C279
:10E9F000993509F0C4C567C483E792EE62E00F94CD
:10EA0000F5F110920602109207021092080210927D
:10EA1000090210920A0210920B0210920C0210923C
:10EA20000D0213C18FE792EE62E00F94F5F18FEEC5
:10EA300090EE60E00F94F5F181E291EE60E00F94CA
:10EA4000C2F187EB91EE60E00F94F5F180E391EE77
:10EA500060E00F94C2F184EE90EE60E00F94F5F167
:10EA60008FE391EE60E00F94C2F186E090E061E008
:10EA700070E00F9434F20F94DCF18DE591EE60E0DC
:10EA80000F94C2F189EC91EE60E00F94F5F18EE401
:10EA900091EE60E00F94C2F183EC91EE60E00F9490
:10EAA000F5F18CE691EE60E00F94C2F18EE10F94E7
:10EAB0000DF288E90F940DF281E00F940DF20F949E
:10EAC000DCF18BE791EE60E00F94C2F119E0E0E039
:10EAD000F0E010935700E4918E2F0F940DF20F94F5
:10EAE000DCF18AE891EE60E00F94C2F1E3E0F0E03F
:10EAF00010935700E4918E2F0F940DF20F94DCF1D8
:10EB000089E991EE60E00F94C2F1E2E0F0E0109349
:10EB10005700E4918E2F0F940DF20F94DCF188EAE8
:10EB200091EE60E00F94C2F1E1E0F0E01093570045
:10EB30001491812F0F940DF20F94DCF107CF8BE825
:10EB400092EE62E00F94F5F18BE492EE60E00F94A8
:10EB5000F5F10F94DCF100E010E019C0C8016F2D51
:10EB60000F947FFEFF2031F489E492EE60E00F9471
:10EB7000C2F10BC0F092C6008091C00086FFFCCFAE
:10EB80008091C00080648093C0000F5F1F4FC80158
:10EB900081519F41A0E0B0E0ABBFFC01F790BAE229
:10EBA000FB1621F0E2E000301E07C1F60F94DCF105
:10EBB0000F94DCF187E592EE60E00F94F5F10F948D
:10EBC000DCF1CC24DD2400E010E01EC0C8010F946D
:10EBD00077FEF82E882331F489E492EE60E00F94FA
:10EBE000C2F10BC08093C6008091C00086FFFCCFAD
:10EBF0008091C00080648093C000FE1419F00894D6
:10EC0000C11CD11C0F5F1F4FC80181519F41A0E063
:10EC1000B0E0ABBFFC01E790FAE2EF1621F022E092
:10EC20000030120799F60F94DCF10F94DCF182E6C4
:10EC300092EE60E00F94C2F1C60161E070E00F94C3
:10EC400034F20F94DCF10F94DCF110920202109276
:10EC50000302109204021092050278CE89E992EE26
:10EC600062E00F94F5F1279A2F9A16C02F9880E052
:10EC700090E0E0EDF7E03197F1F7019684369105E9
:10EC8000C1F72F9A80E090E0E0EDF7E03197F1F7DF
:10EC9000019684369105C1F78091C00087FFE6CFC9
:10ECA0008091C00087FFFCCF64C485EA92EE62E0E9
:10ECB0000F94F5F140910202509103026091040219
:10ECC0007091050281E020E10F9491F2809102029F
:10ECD00090910302A0910402B091050280509F4FD1
:10ECE000AF4FBF4F8093020290930302A0930402A0
:10ECF000B093050280509041A040B04008F426CE69
:10ED0000A4CF83EB92EE62E00F94F5F140910602FE
:10ED100050910702609108027091090280E020E1A1
:10ED20000F9491F28091060290910702A09108023F
:10ED3000B091090280509F4FAF4FBF4F80930602A2
:10ED400090930702A0930802B0930902FFCD80ECD4
:10ED500092EE62E00F94F5F183E792EE60E00F949B
:10ED6000F5F18FE792EE60E00F94F5F18BE892EE0B
:10ED700060E00F94F5F189E992EE60E00F94F5F10F
:10ED800085EA92EE60E00F94F5F183EB92EE60E09D
:10ED90000F94F5F180EC92EE60E00F94F5F187ECC2
:10EDA00092EE60E00F94F5F188ED92EE60E00F9442
:10EDB000F5F18FED92EE60E00F94F5F18AEE92EEB0
:10EDC00060E00F94F5F183E093EEBDCD87EC92EE19
:10EDD00062E00F94F5F181E40F947BF282E40F94EA
:10EDE0007BF283E40F947BF284E40F947BF285E45E
:10EDF0000F947BF286E40F947BF287E40F947BF20E
:10EE000088E40F947BF28AE40F947BF28BE40F94F6
:10EE10007BF28CE40F947BF299CD88ED92EE62E068
:10EE20000F94F5F1772473948824992409C48FED05
:10EE300092EE62E00F94F5F140910A0250910B02BC
:10EE400060910C0270910D0282E020E10F9491F22A
:10EE500080910A0290910B02A0910C02B0910D02D8
:10EE600080509F4FAF4FBF4F80930A0290930B0289
:10EE7000A0930C02B0930D0269CD8AEE92EE62E08F
:10EE80000F94F5F184EE90EE60E00F94F5F18FECC5
:10EE900091EE60E00F94F5F1662477244301CC5D98
:10EEA000DE4F19821882C452D140D401C301B695F5
:10EEB000A79597958795CA5DDE4F88839983AA8326
:10EEC000BB83C652D140CC5DDE4FA881B981C4520C
:10EED000D1401196CC5DDE4FB983A883C452D14096
:10EEE000CD0162E070E00F9434F2B0E2B093C6005E
:10EEF0008091C00086FFFCCF8091C0008064809329
:10EF0000C000EDE2E093C6008091C00086FFFCCF18
:10EF10008091C00080648093C000F0E2F093C6004E
:10EF20008091C00086FFFCCF8091C00080648093F8
:10EF3000C000CA5DDE4FE880F9800A811B81C6529D
:10EF4000D140BB27A12F902F8F2D0F940DF2CA5DBA
:10EF5000DE4F8881C652D1400F940DF2B0E2FB2EF5
:10EF6000F092C6008091C00086FFFCCF8091C00067
:10EF700080648093C0000DE30093C6008091C000C0
:10EF800086FFFCCF8091C00080648093C00010E2B7
:10EF90001093C6008091C00086FFFCCF8091C00016
:10EFA00080648093C0008BBEF3012791C65DDE4F65
:10EFB0002883CA52D140A22EBB24CC24DD2408943D
:10EFC000611C711C811C911C8BBEF3018791282E42
:10EFD0003324442455240894611C711C811C911C09
:10EFE0008BBEF3013791C55DDE4F3883CB52D140E4
:10EFF0000894611C711C811C911C8BBEF30147910C
:10F00000C45DDE4F4883CC52D140ADEFEA2EAFEF66
:10F01000FA2EAFEF0A2FAFEF1A2F6E0C7F1C801E57
:10F02000911E142D032DF22CEE24EA0CFB1C0C1D5A
:10F030001D1D0F940DF220E22093C6008091C000A8
:10F0400086FFFCCF8091C00080648093C000C65DC5
:10F05000DE4F8881CA52D1400F940DF230E23093D6
:10F06000C6008091C00086FFFCCF8091C000806404
:10F070008093C000C45DDE4F8881CC52D1400F9494
:10F080000DF240E24093C6008091C00086FFFCCFA5
:10F090008091C00080648093C000C55DDE4F888190
:10F0A000CB52D1400F940DF250E25093C6008091A4
:10F0B000C00086FFFCCF8091C00080648093C000B8
:10F0C0008FEFE8168FEFF80680E0080780E018075A
:10F0D00031F484E092EE60E00F94C2F1DFC0D80119
:10F0E000C7018070907CA070B0708050904CA040A0
:10F0F000B040D1F52FEF3FE340E050E0E222F322B1
:10F1000004231523CA5DDE4FA880B980CA80DB8046
:10F11000C652D140AE0CBF1CC01ED11EAA0CBB1CD7
:10F12000CC1CDD1C8EE092EE60E00F94C2F1BB2798
:10F13000A12F902F8F2D0F940DF28E2D0F940DF285
:10F1400030E23093C6008091C00086FFFCCF8091F2
:10F15000C00080648093C0004EE34093C60080915D
:10F16000C00086FFFCCF87C08EE09EEFA0E0B0E03D
:10F17000E822F9220A231B239CE0E91694E9F90608
:10F1800090E0090790E0190709F088C0C45DDE4FE0
:10F19000A881CC52D140EA2EFF2400E010E0102FCD
:10F1A0000F2DFE2CEE24C55DDE4FB881CB52D14031
:10F1B000EB0EF11C011D111DD601C501817090706F
:10F1C000A070B070DC0199278827E80EF91E0A1F8D
:10F1D0001B1F20EF30E040E050E0A222B322C42207
:10F1E000D52241E1AA0CBB1CCC1CDD1C4A95D1F7F1
:10F1F000EA0CFB1C0C1D1D1D81E090E0A0E0B0E0BE
:10F20000282239224A225B2235E1220C331C441C7D
:10F21000551C3A95D1F7E20CF31C041D151D57013E
:10F220006801AA0CBB1CCC1CDD1C85E192EE60E0E1
:10F230000F94C2F1C801AA27BB270F940DF2BB2778
:10F24000A12F902F8F2D0F940DF28E2D0F940DF274
:10F2500090E29093C6008091C00086FFFCCF809121
:10F26000C00080648093C000AEE3A093C60080918C
:10F27000C00086FFFCCF8091C00080648093C000F6
:10F28000C601AA27BB270F940DF2BB27AD2D9C2DDD
:10F290008B2D0F940DF28A2D0F940DF20F94DCF14B
:10F2A000CC5DDE4FE881F981C452D140F99709F471
:10F2B0004DCBF4E0EF2EF12C012D112D6E0C7F1CA7
:10F2C000801E911EF2CD83E093EE62E00F94F5F183
:10F2D0008AE192EE60E00F94C2F18091C00087FF56
:10F2E000FCCF1091C6001F751093C6008091C0001E
:10F2F00086FFFCCF8091C00080648093C0000F9493
:10F30000DCF1812F81548A3108F036C1163409F4BA
:10F3100095C0173490F4133409F44EC0143430F40B
:10F320001134F1F0123409F01DC130C0143409F465
:10F3300059C0153409F016C16BC01A3409F4C4C0A1
:10F340001B3438F4173409F48FC0183409F00AC19B
:10F35000A1C01B3409F4D2C01C3409F003C1E8C0B9
:10F360008FEF81B90DC082B1809582B980E090E0C5
:10F37000E0EDF7E03197F1F70196883C9105C1F790
:10F380008091C00087FFEFCF12B8EFC08FEF84B934
:10F390000DC085B1809585B980E090E0E0EDF7E0A3
:10F3A0003197F1F70196883C9105C1F78091C00033
:10F3B00087FFEFCF15B8D9C08FEF87B90DC088B1DF
:10F3C000809588B980E090E0E0EDF7E03197F1F7C3
:10F3D0000196883C9105C1F78091C00087FFEFCF6F
:10F3E00018B8C3C08FEF8AB90DC08BB180958BB9A7
:10F3F00080E090E0E0EDF7E03197F1F70196883C8E
:10F400009105C1F78091C00087FFEFCF1BB8ADC059
:10F410008FEF8DB90DC08EB180958EB980E090E0F0
:10F42000E0EDF7E03197F1F70196883C9105C1F7DF
:10F430008091C00087FFEFCF1EB897C08FEF80BBD1
:10F440000DC081B3809581BB80E090E0E0EDF7E0F6
:10F450003197F1F70196883C9105C1F78091C00082
:10F4600087FFEFCF11BA81C08FEF83BB0DC084B38C
:10F47000809584BB80E090E0E0EDF7E03197F1F714
:10F480000196883C9105C1F78091C00087FFEFCFBE
:10F4900014BA6BC08FEF809301010FC080910201FD
:10F4A00080958093020180E090E0E0EDF7E03197F5
:10F4B000F1F70196883C9105C1F78091C00087FF64
:10F4C000EDCF1092020151C08FEF809304010FC065
:10F4D0008091050180958093050180E090E0E0ED4A
:10F4E000F7E03197F1F70196883C9105C1F78091DB
:10F4F000C00087FFEDCF1092050137C08FEF8093DA
:10F5000007010FC08091080180958093080180E079
:10F5100090E0E0EDF7E03197F1F70196883C910536
:10F52000C1F78091C00087FFEDCF109208011DC088
:10F530008FEF80930A010FC080910B01809580931B
:10F540000B0180E090E0E0EDF7E03197F1F70196F4
:10F55000883C9105C1F78091C00087FFEDCF1092E4
:10F560000B0103C085E292EEEEC98091C00087FFD7
:10F57000FCCF8091C600EAC988E392EEE4C98CE131
:10F5800091EEE1C988249924933011F1943028F444
:10F59000913089F09230B8F408C0953061F195301F
:10F5A000F0F0963009F048C043C02B3109F042C951
:10F5B00091E06BE13FC96227C15DDE4F2883CF52E6
:10F5C000D14092E037C9B22FA0E0622793E032C960
:10F5D000822F90E0A82BB92B622794E02BC92E3004
:10F5E00009F039C3622795E0C05DDE4F19821882A9
:10F5F000C053D1401FC9E1E0F0E0EC0FFD1FC05D3A
:10F60000DE4F08811981C053D140E00FF11F2083E4
:10F610000F5F1F4FC05DDE4F19830883C053D14079
:10F6200062270A171B0709F005C9D80196E002C92D
:10F63000261709F010C303C0973009F0FBC87724E0
:10F640009981933109F412C19431C8F4963009F4C8
:10F65000D8C0973050F4923009F406C1933009F4C1
:10F660006DC0913009F059C253C0913109F477C08F
:10F67000923108F0BBC0903109F04FC2F5C098310B
:10F6800009F487C0993150F4953109F4EFC09531F0
:10F6900008F4C6C1963109F040C2C2C19A3109F4DA
:10F6A0006CC09A3108F491C09B3109F45BC09D3164
:10F6B00009F033C29D81903359F48F81882311F46E
:10F6C0009EE11CC0813011F091E018C098E916C08D
:10F6D000892F807591F0903539F4E0E0F0E089E011
:10F6E0008093570094910AC0983539F4E3E0F0E034
:10F6F00089E080935700949101C090E01A821B82A8
:10F700008D818C831D829E831F8227E030E009C299
:10F710001A8288E08B8381E48C8386E58D8382E581
:10F720008E8389E48F8383E5888780E589878FE5E9
:10F730008A8782E38B872BE030E0F3C18A818139AD
:10F7400041F0823941F0803911F48FE005C080E04A
:10F7500003C082E001C08AE01A828B8344C0772410
:10F76000739482C08D81882311F48EE12CC0813086
:10F7700011F081E028C088E926C01A82E1E0F0E0BB
:10F7800089E08093570084918B831C8224E030E0D1
:10F79000C8C18B81803589F48C81883039F4E2E0EE
:10F7A000F0E089E08093570084910DC0E0E0F0E044
:10F7B00089E080935700849106C0E3E0F0E089E09F
:10F7C0008093570084911A82DFCF8D81836C99E0FA
:10F7D000E1E0F0E0082E90935700E89507B600FCB2
:10F7E000FDCF1A821B8223E030E09BC180EC8A832C
:10F7F000CE5CDE4F188219821A821B82C253D1401E
:10F800008EC18A8190E0A0E0B0E0582F44273327D2
:10F8100022278B8190E0A0E0B0E0DC0199278827C7
:10F82000282B392B4A2B5B2B8D8190E0A0E0B0E098
:10F83000282B392B4A2B5B2B8C8190E0A0E0B0E089
:10F84000BA2FA92F982F8827282B392B4A2B5B2BCF
:10F85000220F331F441F551FC05EDE4F288339839C
:10F860004A835B83C052D1401A8259C13A81C95C34
:10F87000DE4F3883C753D140CA5CDE4F1882C6536F
:10F88000D1408B81C82EDD24CA5CDE4F488159816E
:10F89000C653D140C42AD52A933109F082C0CE5C28
:10F8A000DE4F88819981AA81BB81C253D1408050AB
:10F8B000904CA340B04030F583E0CE5CDE4FE88052
:10F8C000F9800A811B81C253D140F70100935B008C
:10F8D00080935700E89507B600FCFDCFCE5CDE4F65
:10F8E000088119812A813B81C253D14000501F4FAA
:10F8F0002F4F3F4FCE5CDE4F088319832A833B8313
:10F90000C253D140C05EDE4F488159816A817B81FC
:10F91000C052D140DE011B9631E08C9111962C91A2
:10F9200011971296C75CDE4F2883C953D140C85C3B
:10F93000DE4F1882C853D14090E0C85CDE4FE881AA
:10F94000F981C853D1408E2B9F2B0C01FA01609393
:10F950005B0030935700E89511244E5F5F4F6F4F67
:10F960007F4F0EEFE02E0FEFF02ECE0CDF1CC114F8
:10F97000D10499F685E0C05EDE4F088119812A81A5
:10F980003B81C052D140F80120935B008093570027
:10F99000E89507B600FCFDCF81E180935700E8951C
:10F9A00035C0C05EDE4F88819981AA81BB81C0527B
:10F9B000D140B695A795979587957C018601ABE0D8
:10F9C000AA2EB12CAC0EBD1E0BC0D5016D915D01F0
:10F9D000C7010F947FFE0894E11CF11C01501040F8
:10F9E0000115110591F7A60160E070E0440F551F65
:10F9F000661F771FC05EDE4FE880F9800A811B8199
:10FA0000C052D1404E0D5F1D601F711F1A82C05E33
:10FA1000DE4F488359836A837B83C052D1407FC0C5
:10FA2000FA80C55CDE4FF882CB53D140C65CDE4F16
:10FA30001882CA53D1408B81C82EDD24C65CDE4FAC
:10FA400008811981CA53D140C02AD12A1A828981DA
:10FA5000BE016D5F7F4F843121F59601C05EDE4FA0
:10FA6000E880F9800A811B81C052D1400BBFF701A9
:10FA700087919691DB018C9311969C936E5F7F4FDB
:10FA8000D801C7010296A11DB11DC05EDE4F88835B
:10FA90009983AA83BB83C052D14022503040F1F6F3
:10FAA00036C0C05EDE4F288139814A815B81C052F9
:10FAB000D1400894C108D108760100E010E0089414
:10FAC000C11CD11C0894E11CF11C011D111DE20E8A
:10FAD000F31E041F151F21BDBB27A52F942F832FB5
:10FAE00082BD2F5F3F4F4F4F5F4FF89A80B5DB01CC
:10FAF0008D93BD012E153F054007510761F7C05E8C
:10FB0000DE4F288339834A835B83C052D1409601FC
:10FB10002D5F3F4FFB01108204C080EC8A8322E0FE
:10FB200030E08BE18093C6008091C00086FFFCCF5F
:10FB30008091C00080648093C000C15DDE4FF88179
:10FB4000CF52D140F093C6008091C00086FFFCCF19
:10FB50008091C00080648093C000432F3093C60022
:10FB60008091C00086FFFCCF8091C00080648093AC
:10FB7000C000922F2093C6008091C00086FFFCCF6A
:10FB80008091C00080648093C0008EE08093C600A6
:10FB90008091C00086FFFCCF8091C000806480937C
:10FBA000C00065E1C15DDE4FE880CF52D1406E25D7
:10FBB00069276427FE01319610C090819093C6009A
:10FBC0008091C00086FFFCCF31968091C000806498
:10FBD0008093C0006927215030402115310569F715
:10FBE0006093C6008091C00086FFFCCF8091C0006A
:10FBF00080648093C00085B1805885B9772081F4F6
:10FC0000C15DDE4F0881CF52D1400F5FC15DDE4F35
:10FC10000883CF52D14090E0A0E0B0E00D941AF4F8
:10FC200027982F9880E090E020ED37E0F901319798
:10FC3000F1F7019684369105C9F700008091C00064
:10FC40008D7F8093C00081E180935700E895EE2777
:10FC5000FF270994FFCF90E00D941AF497FB092E2B
:10FC600007260AD077FD04D02ED006D000201AF443
:10FC7000709561957F4F0895F6F7909581959F4F08
:10FC80000895A1E21A2EAA1BBB1BFD010DC0AA1FDD
:10FC9000BB1FEE1FFF1FA217B307E407F50720F0F5
:10FCA000A21BB30BE40BF50B661F771F881F991F70
:10FCB0001A9469F760957095809590959B01AC01B9
:10FCC000BD01CF010895AA1BBB1B51E107C0AA1FAC
:10FCD000BB1FA617B70710F0A61BB70B881F991FED
:10FCE0005A95A9F780959095BC01CD010895F99991
:10FCF000FECF92BD81BDF89A992780B50895262F31
:10FD0000F999FECF1FBA92BD81BD20BD0FB6F89400
:0EFD1000FA9AF99A0FBE01960895F894FFCF63
:00000001FF
